{
  "contractName": "CertificateControllerMock",
  "abi": [
    {
      "inputs": [
        {
          "name": "_certificateSigner",
          "type": "address"
        }
      ],
      "payable": false,
      "stateMutability": "nonpayable",
      "type": "constructor"
    },
    {
      "anonymous": false,
      "inputs": [
        {
          "indexed": false,
          "name": "sender",
          "type": "address"
        }
      ],
      "name": "Checked",
      "type": "event"
    },
    {
      "constant": true,
      "inputs": [
        {
          "name": "sender",
          "type": "address"
        }
      ],
      "name": "checkCount",
      "outputs": [
        {
          "name": "",
          "type": "uint256"
        }
      ],
      "payable": false,
      "stateMutability": "view",
      "type": "function"
    },
    {
      "constant": true,
      "inputs": [
        {
          "name": "operator",
          "type": "address"
        }
      ],
      "name": "certificateSigners",
      "outputs": [
        {
          "name": "",
          "type": "bool"
        }
      ],
      "payable": false,
      "stateMutability": "view",
      "type": "function"
    }
  ],
  "bytecode": "0x608060405234801561001057600080fd5b506040516020806102978339810180604052602081101561003057600080fd5b505161004681600164010000000061004c810204565b50610113565b600160a060020a03821615156100e857604080517f08c379a0000000000000000000000000000000000000000000000000000000008152602060048201526024808201527f416374696f6e20426c6f636b6564202d204e6f7420612076616c69642061646460448201527f7265737300000000000000000000000000000000000000000000000000000000606482015290519081900360840190fd5b600160a060020a03919091166000908152602081905260409020805460ff1916911515919091179055565b610175806101226000396000f3fe60806040526004361061004b5763ffffffff7c010000000000000000000000000000000000000000000000000000000060003504166369102190811461005057806371de6362146100a2575b600080fd5b34801561005c57600080fd5b506100906004803603602081101561007357600080fd5b503573ffffffffffffffffffffffffffffffffffffffff166100f6565b60408051918252519081900360200190f35b3480156100ae57600080fd5b506100e2600480360360208110156100c557600080fd5b503573ffffffffffffffffffffffffffffffffffffffff1661011e565b604080519115158252519081900360200190f35b73ffffffffffffffffffffffffffffffffffffffff1660009081526001602052604090205490565b73ffffffffffffffffffffffffffffffffffffffff1660009081526020819052604090205460ff169056fea165627a7a723058207f59bc308a241f8f8a76bd2163984faccce66176de747e8130678acb61169ab20029",
  "source": "pragma solidity >=0.5.0;\n\n\ncontract CertificateControllerMock {\n\n  // Address used by off-chain controller service to sign certificate\n  mapping(address => bool) internal _certificateSigners;\n\n  // A nonce used to ensure a certificate can be used only once\n  mapping(address => uint256) internal _checkCount;\n\n  event Checked(address sender);\n\n  constructor(address _certificateSigner) public {\n    _setCertificateSigner(_certificateSigner, true);\n  }\n\n  /**\n   * @dev Modifier to protect methods with certificate control\n   */\n  modifier isValidCertificate(bytes memory data) {\n\n    require(_certificateSigners[msg.sender] || _checkCertificate(data, 0, 0x00000000), \"A3: Transfer Blocked - Sender lockup period not ended\");\n\n    _checkCount[msg.sender] += 1; // Increment sender check count\n\n    emit Checked(msg.sender);\n    _;\n  }\n\n  /**\n   * @dev Get number of transations already sent to this contract by the sender\n   * @param sender Address whom to check the counter of.\n   * @return uint256 Number of transaction already sent to this contract.\n   */\n  function checkCount(address sender) external view returns (uint256) {\n    return _checkCount[sender];\n  }\n\n  /**\n   * @dev Get certificate signer authorization for an operator.\n   * @param operator Address whom to check the certificate signer authorization for.\n   * @return bool 'true' if operator is authorized as certificate signer, 'false' if not.\n   */\n  function certificateSigners(address operator) external view returns (bool) {\n    return _certificateSigners[operator];\n  }\n\n  /**\n   * @dev Set signer authorization for operator.\n   * @param operator Address to add/remove as a certificate signer.\n   * @param authorized 'true' if operator shall be accepted as certificate signer, 'false' if not.\n   */\n  function _setCertificateSigner(address operator, bool authorized) internal {\n    require(operator != address(0), \"Action Blocked - Not a valid address\");\n    _certificateSigners[operator] = authorized;\n  }\n\n  /**\n   * @dev Checks if a certificate is correct\n   * @param data Certificate to control\n   */\n   function _checkCertificate(bytes memory data, uint256 /*value*/, bytes4 /*functionID*/) internal pure returns(bool) { // Comments to avoid compilation warnings for unused variables.\n     if(data.length > 0 && (data[0] == hex\"10\" || data[0] == hex\"11\" || data[0] == hex\"22\")) {\n       return true;\n     } else {\n       return false;\n     }\n   }\n}\n",
  "sourcePath": "/home/moez/Desktop/ProjetPFE/Dapps/ERC1400F/contracts/mocks/CertificateControllerMock.sol",
  "compiler": {
    "name": "solc",
    "version": "0.5.0+commit.1d4f565a.Emscripten.clang"
  },
  "schemaVersion": "3.0.9",
  "updatedAt": "2019-06-26T13:25:25.280Z",
  "devdoc": {
    "methods": {
      "certificateSigners(address)": {
        "details": "Get certificate signer authorization for an operator.",
        "params": {
          "operator": "Address whom to check the certificate signer authorization for."
        },
        "return": "bool 'true' if operator is authorized as certificate signer, 'false' if not."
      },
      "checkCount(address)": {
        "details": "Get number of transations already sent to this contract by the sender",
        "params": {
          "sender": "Address whom to check the counter of."
        },
        "return": "uint256 Number of transaction already sent to this contract."
      }
    }
  },
  "userdoc": {
    "methods": {}
  }
}