{
  "contractName": "CertificateController",
  "abi": [
    {
      "constant": true,
      "inputs": [
        {
          "name": "sender",
          "type": "address"
        }
      ],
      "name": "checkCount",
      "outputs": [
        {
          "name": "",
          "type": "uint256"
        }
      ],
      "payable": false,
      "stateMutability": "view",
      "type": "function"
    },
    {
      "constant": true,
      "inputs": [
        {
          "name": "operator",
          "type": "address"
        }
      ],
      "name": "certificateSigners",
      "outputs": [
        {
          "name": "",
          "type": "bool"
        }
      ],
      "payable": false,
      "stateMutability": "view",
      "type": "function"
    },
    {
      "inputs": [
        {
          "name": "_certificateSigner",
          "type": "address"
        }
      ],
      "payable": false,
      "stateMutability": "nonpayable",
      "type": "constructor"
    },
    {
      "anonymous": false,
      "inputs": [
        {
          "indexed": false,
          "name": "sender",
          "type": "address"
        }
      ],
      "name": "Checked",
      "type": "event"
    }
  ],
  "bytecode": "0x608060405234801561001057600080fd5b506040516020806102998339810180604052602081101561003057600080fd5b50518061004781600164010000000061004e810204565b5050610115565b600160a060020a03821615156100ea57604080517f08c379a0000000000000000000000000000000000000000000000000000000008152602060048201526024808201527f416374696f6e20426c6f636b6564202d204e6f7420612076616c69642061646460448201527f7265737300000000000000000000000000000000000000000000000000000000606482015290519081900360840190fd5b600160a060020a03919091166000908152602081905260409020805460ff1916911515919091179055565b610175806101246000396000f3fe60806040526004361061004b5763ffffffff7c010000000000000000000000000000000000000000000000000000000060003504166369102190811461005057806371de6362146100a2575b600080fd5b34801561005c57600080fd5b506100906004803603602081101561007357600080fd5b503573ffffffffffffffffffffffffffffffffffffffff166100f6565b60408051918252519081900360200190f35b3480156100ae57600080fd5b506100e2600480360360208110156100c557600080fd5b503573ffffffffffffffffffffffffffffffffffffffff1661011e565b604080519115158252519081900360200190f35b73ffffffffffffffffffffffffffffffffffffffff1660009081526001602052604090205490565b73ffffffffffffffffffffffffffffffffffffffff1660009081526020819052604090205460ff169056fea165627a7a7230582083b4bb28a2f1baa8c7d6160c92b3fefce28533565647d4b6e78ee2782fc59a7b0029",
  "source": "pragma solidity >=0.5.0;\n\nimport \"../mocks/CertificateControllerMock.sol\";\n\ncontract CertificateController is CertificateControllerMock {\n\n  constructor(address _certificateSigner) public CertificateControllerMock(_certificateSigner) {}\n\n}\n",
  "sourcePath": "/home/moez/Desktop/ProjetPFE/Dapps/ERC1400F/contracts/CertificateController/CertificateController.sol",
  "compiler": {
    "name": "solc",
    "version": "0.5.0+commit.1d4f565a.Emscripten.clang"
  },
  "schemaVersion": "3.0.9",
  "updatedAt": "2019-06-26T13:25:25.213Z",
  "devdoc": {
    "methods": {
      "certificateSigners(address)": {
        "details": "Get certificate signer authorization for an operator.",
        "params": {
          "operator": "Address whom to check the certificate signer authorization for."
        },
        "return": "bool 'true' if operator is authorized as certificate signer, 'false' if not."
      },
      "checkCount(address)": {
        "details": "Get number of transations already sent to this contract by the sender",
        "params": {
          "sender": "Address whom to check the counter of."
        },
        "return": "uint256 Number of transaction already sent to this contract."
      }
    }
  },
  "userdoc": {
    "methods": {}
  }
}