{
  "contractName": "ERC1410",
  "abi": [
    {
      "constant": true,
      "inputs": [],
      "name": "name",
      "outputs": [
        {
          "name": "",
          "type": "string"
        }
      ],
      "payable": false,
      "stateMutability": "view",
      "type": "function"
    },
    {
      "constant": true,
      "inputs": [],
      "name": "totalSupply",
      "outputs": [
        {
          "name": "",
          "type": "uint256"
        }
      ],
      "payable": false,
      "stateMutability": "view",
      "type": "function"
    },
    {
      "constant": true,
      "inputs": [],
      "name": "granularity",
      "outputs": [
        {
          "name": "",
          "type": "uint256"
        }
      ],
      "payable": false,
      "stateMutability": "view",
      "type": "function"
    },
    {
      "constant": true,
      "inputs": [
        {
          "name": "sender",
          "type": "address"
        }
      ],
      "name": "checkCount",
      "outputs": [
        {
          "name": "",
          "type": "uint256"
        }
      ],
      "payable": false,
      "stateMutability": "view",
      "type": "function"
    },
    {
      "constant": true,
      "inputs": [
        {
          "name": "tokenHolder",
          "type": "address"
        }
      ],
      "name": "balanceOf",
      "outputs": [
        {
          "name": "",
          "type": "uint256"
        }
      ],
      "payable": false,
      "stateMutability": "view",
      "type": "function"
    },
    {
      "constant": false,
      "inputs": [],
      "name": "renounceOwnership",
      "outputs": [],
      "payable": false,
      "stateMutability": "nonpayable",
      "type": "function"
    },
    {
      "constant": true,
      "inputs": [
        {
          "name": "operator",
          "type": "address"
        }
      ],
      "name": "certificateSigners",
      "outputs": [
        {
          "name": "",
          "type": "bool"
        }
      ],
      "payable": false,
      "stateMutability": "view",
      "type": "function"
    },
    {
      "constant": true,
      "inputs": [],
      "name": "controllers",
      "outputs": [
        {
          "name": "",
          "type": "address[]"
        }
      ],
      "payable": false,
      "stateMutability": "view",
      "type": "function"
    },
    {
      "constant": true,
      "inputs": [],
      "name": "owner",
      "outputs": [
        {
          "name": "",
          "type": "address"
        }
      ],
      "payable": false,
      "stateMutability": "view",
      "type": "function"
    },
    {
      "constant": true,
      "inputs": [],
      "name": "isOwner",
      "outputs": [
        {
          "name": "",
          "type": "bool"
        }
      ],
      "payable": false,
      "stateMutability": "view",
      "type": "function"
    },
    {
      "constant": false,
      "inputs": [
        {
          "name": "operator",
          "type": "address"
        }
      ],
      "name": "authorizeOperator",
      "outputs": [],
      "payable": false,
      "stateMutability": "nonpayable",
      "type": "function"
    },
    {
      "constant": true,
      "inputs": [],
      "name": "symbol",
      "outputs": [
        {
          "name": "",
          "type": "string"
        }
      ],
      "payable": false,
      "stateMutability": "view",
      "type": "function"
    },
    {
      "constant": true,
      "inputs": [
        {
          "name": "operator",
          "type": "address"
        },
        {
          "name": "tokenHolder",
          "type": "address"
        }
      ],
      "name": "isOperatorFor",
      "outputs": [
        {
          "name": "",
          "type": "bool"
        }
      ],
      "payable": false,
      "stateMutability": "view",
      "type": "function"
    },
    {
      "constant": false,
      "inputs": [
        {
          "name": "newOwner",
          "type": "address"
        }
      ],
      "name": "transferOwnership",
      "outputs": [],
      "payable": false,
      "stateMutability": "nonpayable",
      "type": "function"
    },
    {
      "constant": false,
      "inputs": [
        {
          "name": "operator",
          "type": "address"
        }
      ],
      "name": "revokeOperator",
      "outputs": [],
      "payable": false,
      "stateMutability": "nonpayable",
      "type": "function"
    },
    {
      "inputs": [
        {
          "name": "name",
          "type": "string"
        },
        {
          "name": "symbol",
          "type": "string"
        },
        {
          "name": "granularity",
          "type": "uint256"
        },
        {
          "name": "controllers",
          "type": "address[]"
        },
        {
          "name": "certificateSigner",
          "type": "address"
        },
        {
          "name": "tokenDefaultPartitions",
          "type": "bytes32[]"
        }
      ],
      "payable": false,
      "stateMutability": "nonpayable",
      "type": "constructor"
    },
    {
      "anonymous": false,
      "inputs": [
        {
          "indexed": false,
          "name": "sender",
          "type": "address"
        }
      ],
      "name": "Checked",
      "type": "event"
    },
    {
      "anonymous": false,
      "inputs": [
        {
          "indexed": true,
          "name": "previousOwner",
          "type": "address"
        },
        {
          "indexed": true,
          "name": "newOwner",
          "type": "address"
        }
      ],
      "name": "OwnershipTransferred",
      "type": "event"
    },
    {
      "anonymous": false,
      "inputs": [
        {
          "indexed": true,
          "name": "operator",
          "type": "address"
        },
        {
          "indexed": true,
          "name": "from",
          "type": "address"
        },
        {
          "indexed": true,
          "name": "to",
          "type": "address"
        },
        {
          "indexed": false,
          "name": "value",
          "type": "uint256"
        },
        {
          "indexed": false,
          "name": "data",
          "type": "bytes"
        },
        {
          "indexed": false,
          "name": "operatorData",
          "type": "bytes"
        }
      ],
      "name": "TransferWithData",
      "type": "event"
    },
    {
      "anonymous": false,
      "inputs": [
        {
          "indexed": true,
          "name": "operator",
          "type": "address"
        },
        {
          "indexed": true,
          "name": "to",
          "type": "address"
        },
        {
          "indexed": false,
          "name": "value",
          "type": "uint256"
        },
        {
          "indexed": false,
          "name": "data",
          "type": "bytes"
        },
        {
          "indexed": false,
          "name": "operatorData",
          "type": "bytes"
        }
      ],
      "name": "Issued",
      "type": "event"
    },
    {
      "anonymous": false,
      "inputs": [
        {
          "indexed": true,
          "name": "operator",
          "type": "address"
        },
        {
          "indexed": true,
          "name": "from",
          "type": "address"
        },
        {
          "indexed": false,
          "name": "value",
          "type": "uint256"
        },
        {
          "indexed": false,
          "name": "data",
          "type": "bytes"
        },
        {
          "indexed": false,
          "name": "operatorData",
          "type": "bytes"
        }
      ],
      "name": "Redeemed",
      "type": "event"
    },
    {
      "anonymous": false,
      "inputs": [
        {
          "indexed": true,
          "name": "operator",
          "type": "address"
        },
        {
          "indexed": true,
          "name": "tokenHolder",
          "type": "address"
        }
      ],
      "name": "AuthorizedOperator",
      "type": "event"
    },
    {
      "anonymous": false,
      "inputs": [
        {
          "indexed": true,
          "name": "operator",
          "type": "address"
        },
        {
          "indexed": true,
          "name": "tokenHolder",
          "type": "address"
        }
      ],
      "name": "RevokedOperator",
      "type": "event"
    },
    {
      "anonymous": false,
      "inputs": [
        {
          "indexed": true,
          "name": "fromPartition",
          "type": "bytes32"
        },
        {
          "indexed": false,
          "name": "operator",
          "type": "address"
        },
        {
          "indexed": true,
          "name": "from",
          "type": "address"
        },
        {
          "indexed": true,
          "name": "to",
          "type": "address"
        },
        {
          "indexed": false,
          "name": "value",
          "type": "uint256"
        },
        {
          "indexed": false,
          "name": "data",
          "type": "bytes"
        },
        {
          "indexed": false,
          "name": "operatorData",
          "type": "bytes"
        }
      ],
      "name": "TransferByPartition",
      "type": "event"
    },
    {
      "anonymous": false,
      "inputs": [
        {
          "indexed": true,
          "name": "fromPartition",
          "type": "bytes32"
        },
        {
          "indexed": true,
          "name": "toPartition",
          "type": "bytes32"
        },
        {
          "indexed": false,
          "name": "value",
          "type": "uint256"
        }
      ],
      "name": "ChangedPartition",
      "type": "event"
    },
    {
      "anonymous": false,
      "inputs": [
        {
          "indexed": true,
          "name": "partition",
          "type": "bytes32"
        },
        {
          "indexed": true,
          "name": "operator",
          "type": "address"
        },
        {
          "indexed": true,
          "name": "tokenHolder",
          "type": "address"
        }
      ],
      "name": "AuthorizedOperatorByPartition",
      "type": "event"
    },
    {
      "anonymous": false,
      "inputs": [
        {
          "indexed": true,
          "name": "partition",
          "type": "bytes32"
        },
        {
          "indexed": true,
          "name": "operator",
          "type": "address"
        },
        {
          "indexed": true,
          "name": "tokenHolder",
          "type": "address"
        }
      ],
      "name": "RevokedOperatorByPartition",
      "type": "event"
    },
    {
      "constant": true,
      "inputs": [
        {
          "name": "partition",
          "type": "bytes32"
        },
        {
          "name": "tokenHolder",
          "type": "address"
        }
      ],
      "name": "balanceOfByPartition",
      "outputs": [
        {
          "name": "",
          "type": "uint256"
        }
      ],
      "payable": false,
      "stateMutability": "view",
      "type": "function"
    },
    {
      "constant": true,
      "inputs": [
        {
          "name": "tokenHolder",
          "type": "address"
        }
      ],
      "name": "partitionsOf",
      "outputs": [
        {
          "name": "",
          "type": "bytes32[]"
        }
      ],
      "payable": false,
      "stateMutability": "view",
      "type": "function"
    },
    {
      "constant": false,
      "inputs": [
        {
          "name": "partition",
          "type": "bytes32"
        },
        {
          "name": "to",
          "type": "address"
        },
        {
          "name": "value",
          "type": "uint256"
        },
        {
          "name": "data",
          "type": "bytes"
        }
      ],
      "name": "transferByPartition",
      "outputs": [
        {
          "name": "",
          "type": "bytes32"
        }
      ],
      "payable": false,
      "stateMutability": "nonpayable",
      "type": "function"
    },
    {
      "constant": false,
      "inputs": [
        {
          "name": "partition",
          "type": "bytes32"
        },
        {
          "name": "from",
          "type": "address"
        },
        {
          "name": "to",
          "type": "address"
        },
        {
          "name": "value",
          "type": "uint256"
        },
        {
          "name": "data",
          "type": "bytes"
        },
        {
          "name": "operatorData",
          "type": "bytes"
        }
      ],
      "name": "operatorTransferByPartition",
      "outputs": [
        {
          "name": "",
          "type": "bytes32"
        }
      ],
      "payable": false,
      "stateMutability": "nonpayable",
      "type": "function"
    },
    {
      "constant": true,
      "inputs": [
        {
          "name": "tokenHolder",
          "type": "address"
        }
      ],
      "name": "getDefaultPartitions",
      "outputs": [
        {
          "name": "",
          "type": "bytes32[]"
        }
      ],
      "payable": false,
      "stateMutability": "view",
      "type": "function"
    },
    {
      "constant": false,
      "inputs": [
        {
          "name": "partitions",
          "type": "bytes32[]"
        }
      ],
      "name": "setDefaultPartitions",
      "outputs": [],
      "payable": false,
      "stateMutability": "nonpayable",
      "type": "function"
    },
    {
      "constant": true,
      "inputs": [
        {
          "name": "partition",
          "type": "bytes32"
        }
      ],
      "name": "controllersByPartition",
      "outputs": [
        {
          "name": "",
          "type": "address[]"
        }
      ],
      "payable": false,
      "stateMutability": "view",
      "type": "function"
    },
    {
      "constant": false,
      "inputs": [
        {
          "name": "partition",
          "type": "bytes32"
        },
        {
          "name": "operator",
          "type": "address"
        }
      ],
      "name": "authorizeOperatorByPartition",
      "outputs": [],
      "payable": false,
      "stateMutability": "nonpayable",
      "type": "function"
    },
    {
      "constant": false,
      "inputs": [
        {
          "name": "partition",
          "type": "bytes32"
        },
        {
          "name": "operator",
          "type": "address"
        }
      ],
      "name": "revokeOperatorByPartition",
      "outputs": [],
      "payable": false,
      "stateMutability": "nonpayable",
      "type": "function"
    },
    {
      "constant": true,
      "inputs": [
        {
          "name": "partition",
          "type": "bytes32"
        },
        {
          "name": "operator",
          "type": "address"
        },
        {
          "name": "tokenHolder",
          "type": "address"
        }
      ],
      "name": "isOperatorForPartition",
      "outputs": [
        {
          "name": "",
          "type": "bool"
        }
      ],
      "payable": false,
      "stateMutability": "view",
      "type": "function"
    },
    {
      "constant": true,
      "inputs": [],
      "name": "totalPartitions",
      "outputs": [
        {
          "name": "",
          "type": "bytes32[]"
        }
      ],
      "payable": false,
      "stateMutability": "view",
      "type": "function"
    },
    {
      "constant": false,
      "inputs": [
        {
          "name": "to",
          "type": "address"
        },
        {
          "name": "value",
          "type": "uint256"
        },
        {
          "name": "data",
          "type": "bytes"
        }
      ],
      "name": "transferWithData",
      "outputs": [],
      "payable": false,
      "stateMutability": "nonpayable",
      "type": "function"
    },
    {
      "constant": false,
      "inputs": [
        {
          "name": "from",
          "type": "address"
        },
        {
          "name": "to",
          "type": "address"
        },
        {
          "name": "value",
          "type": "uint256"
        },
        {
          "name": "data",
          "type": "bytes"
        },
        {
          "name": "operatorData",
          "type": "bytes"
        }
      ],
      "name": "transferFromWithData",
      "outputs": [],
      "payable": false,
      "stateMutability": "nonpayable",
      "type": "function"
    },
    {
      "constant": false,
      "inputs": [
        {
          "name": "",
          "type": "uint256"
        },
        {
          "name": "",
          "type": "bytes"
        }
      ],
      "name": "redeem",
      "outputs": [],
      "payable": false,
      "stateMutability": "nonpayable",
      "type": "function"
    },
    {
      "constant": false,
      "inputs": [
        {
          "name": "",
          "type": "address"
        },
        {
          "name": "",
          "type": "uint256"
        },
        {
          "name": "",
          "type": "bytes"
        },
        {
          "name": "",
          "type": "bytes"
        }
      ],
      "name": "redeemFrom",
      "outputs": [],
      "payable": false,
      "stateMutability": "nonpayable",
      "type": "function"
    }
  ],
  "bytecode": "0x60806040523480156200001157600080fd5b50604051620035c5380380620035c5833981018060405260c08110156200003757600080fd5b8101908080516401000000008111156200005057600080fd5b820160208101848111156200006457600080fd5b81516401000000008111828201871017156200007f57600080fd5b505092919060200180516401000000008111156200009c57600080fd5b82016020810184811115620000b057600080fd5b8151640100000000811182820187101715620000cb57600080fd5b50506020820151604090920180519194929391640100000000811115620000f157600080fd5b820160208101848111156200010557600080fd5b81518560208202830111640100000000821117156200012357600080fd5b505060208201516040909201805191949293916401000000008111156200014957600080fd5b820160208101848111156200015d57600080fd5b81518560208202830111640100000000821117156200017b57600080fd5b505060008054600160a060020a03191633178082556040519295508a945089935088928892889283928392600160a060020a039290921691907f8be0079c531659141344cd1fd0a4f28419497f9722a3daafe3b4186f6b6457e0908290a3620001ef81600164010000000062000347810204565b5050600160035584516200020b906004906020880190620005f8565b50835162000221906005906020870190620005f8565b5060006007556001831015620002be57604080517f08c379a000000000000000000000000000000000000000000000000000000000815260206004820152603f60248201527f436f6e7374727563746f7220426c6f636b6564202d20546f6b656e206772616e60448201527f756c61726974792063616e206e6f74206265206c6f776572207468616e203100606482015290519081900360840190fd5b6006839055620002d7826401000000006200040f810204565b60408051808201909152600b81527f455243373737546f6b656e0000000000000000000000000000000000000000006020820152620003209030640100000000620004e8810204565b505083516200033a9350601292506020850191506200067d565b5050505050505062000767565b600160a060020a0382161515620003e457604080517f08c379a0000000000000000000000000000000000000000000000000000000008152602060048201526024808201527f416374696f6e20426c6f636b6564202d204e6f7420612076616c69642061646460448201527f7265737300000000000000000000000000000000000000000000000000000000606482015290519081900360840190fd5b600160a060020a03919091166000908152600160205260409020805460ff1916911515919091179055565b60005b600b5481101562000470576000600c6000600b848154811015156200043357fe5b600091825260208083209190910154600160a060020a031683528201929092526040019020805460ff191691151591909117905560010162000412565b5060005b8151811015620004ce576001600c600084848151811015156200049357fe5b602090810291909101810151600160a060020a03168252810191909152604001600020805460ff191691151591909117905560010162000474565b508051620004e490600b906020840190620006ba565b5050565b6000826040516020018082805190602001908083835b602083106200051f5780518252601f199092019160209182019101620004fe565b51815160209384036101000a60001901801990921691161790526040805192909401828103601f19018352808552825192909101919091207f29965a1d00000000000000000000000000000000000000000000000000000000825230600483015260248201819052600160a060020a0388166044830152925192955073820b586c8c28125366c998641b09dcbe7d4cbf0694506329965a1d9350606480820193600093509182900301818387803b158015620005da57600080fd5b505af1158015620005ef573d6000803e3d6000fd5b50505050505050565b828054600181600116156101000203166002900490600052602060002090601f016020900481019282601f106200063b57805160ff19168380011785556200066b565b828001600101855582156200066b579182015b828111156200066b5782518255916020019190600101906200064e565b506200067992915062000720565b5090565b8280548282559060005260206000209081019282156200066b57916020028201828111156200066b5782518255916020019190600101906200064e565b82805482825590600052602060002090810192821562000712579160200282015b82811115620007125782518254600160a060020a031916600160a060020a03909116178255602090920191600190910190620006db565b506200067992915062000740565b6200073d91905b8082111562000679576000815560010162000727565b90565b6200073d91905b8082111562000679578054600160a060020a031916815560010162000747565b612e4e80620007776000396000f3fe6080604052600436106101665763ffffffff60e060020a60003504166306fdde03811461016b578063103ef9e1146101f5578063168ecec51461023057806318160ddd146102695780632535f7621461029057806330e8280314610322578063556f0dc71461035b578063691021901461037057806369598efe146103a35780636d77cad61461040857806370a082311461045d578063715018a61461049057806371de6362146104a5578063740ab8f4146104d85780637cc0c3a71461050b578063861ed3ea14610520578063868d53831461054a5780638c0dee9c146106395780638da5cb5b1461072d5780638f32d59b1461075e578063959b8c3f1461077357806395d89b41146107a6578063b0573de6146107bb578063d95b6371146107ee578063e77c646d14610829578063ec9a6e87146108ad578063f2fde38b1461092a578063f3d490db1461095d578063fad8b32a146109f6578063ffa90f7f14610a29575b600080fd5b34801561017757600080fd5b50610180610b0d565b6040805160208082528351818301528351919283929083019185019080838360005b838110156101ba5781810151838201526020016101a2565b50505050905090810190601f1680156101e75780820380516001836020036101000a031916815260200191505b509250505060405180910390f35b34801561020157600080fd5b5061022e6004803603604081101561021857600080fd5b5080359060200135600160a060020a0316610ba4565b005b34801561023c57600080fd5b5061022e6004803603604081101561025357600080fd5b5080359060200135600160a060020a0316610c08565b34801561027557600080fd5b5061027e610c69565b60408051918252519081900360200190f35b34801561029c57600080fd5b5061022e600480360360608110156102b357600080fd5b600160a060020a03823516916020810135918101906060810160408201356401000000008111156102e357600080fd5b8201836020820111156102f557600080fd5b8035906020019184600183028401116401000000008311171561031757600080fd5b509092509050610c6f565b34801561032e57600080fd5b5061027e6004803603604081101561034557600080fd5b5080359060200135600160a060020a0316610db2565b34801561036757600080fd5b5061027e610ddd565b34801561037c57600080fd5b5061027e6004803603602081101561039357600080fd5b5035600160a060020a0316610de3565b3480156103af57600080fd5b506103b8610e02565b60408051602080825283518183015283519192839290830191858101910280838360005b838110156103f45781810151838201526020016103dc565b505050509050019250505060405180910390f35b34801561041457600080fd5b506104496004803603606081101561042b57600080fd5b50803590600160a060020a0360208201358116916040013516610e59565b604080519115158252519081900360200190f35b34801561046957600080fd5b5061027e6004803603602081101561048057600080fd5b5035600160a060020a0316610e70565b34801561049c57600080fd5b5061022e610e8b565b3480156104b157600080fd5b50610449600480360360208110156104c857600080fd5b5035600160a060020a0316610ef5565b3480156104e457600080fd5b506103b8600480360360208110156104fb57600080fd5b5035600160a060020a0316610f13565b34801561051757600080fd5b506103b8610f7f565b34801561052c57600080fd5b506103b86004803603602081101561054357600080fd5b5035610fe0565b34801561055657600080fd5b5061022e600480360360a081101561056d57600080fd5b600160a060020a038235811692602081013590911691604082013591908101906080810160608201356401000000008111156105a857600080fd5b8201836020820111156105ba57600080fd5b803590602001918460018302840111640100000000831117156105dc57600080fd5b9193909290916020810190356401000000008111156105fa57600080fd5b82018360208201111561060c57600080fd5b8035906020019184600183028401116401000000008311171561062e57600080fd5b50909250905061104b565b34801561064557600080fd5b5061027e600480360360c081101561065c57600080fd5b813591600160a060020a03602082013581169260408301359091169160608101359181019060a08101608082013564010000000081111561069c57600080fd5b8201836020820111156106ae57600080fd5b803590602001918460018302840111640100000000831117156106d057600080fd5b9193909290916020810190356401000000008111156106ee57600080fd5b82018360208201111561070057600080fd5b8035906020019184600183028401116401000000008311171561072257600080fd5b509092509050611259565b34801561073957600080fd5b50610742611480565b60408051600160a060020a039092168252519081900360200190f35b34801561076a57600080fd5b5061044961148f565b34801561077f57600080fd5b5061022e6004803603602081101561079657600080fd5b5035600160a060020a03166114a0565b3480156107b257600080fd5b506101806114f9565b3480156107c757600080fd5b506103b8600480360360208110156107de57600080fd5b5035600160a060020a031661155a565b3480156107fa57600080fd5b506104496004803603604081101561081157600080fd5b50600160a060020a03813581169160200135166115c4565b34801561083557600080fd5b5061022e6004803603604081101561084c57600080fd5b8135919081019060408101602082013564010000000081111561086e57600080fd5b82018360208201111561088057600080fd5b803590602001918460018302840111640100000000831117156108a257600080fd5b5090925090506115d0565b3480156108b957600080fd5b5061022e600480360360208110156108d057600080fd5b8101906020810181356401000000008111156108eb57600080fd5b8201836020820111156108fd57600080fd5b8035906020019184602083028401116401000000008311171561091f57600080fd5b5090925090506115d5565b34801561093657600080fd5b5061022e6004803603602081101561094d57600080fd5b5035600160a060020a03166115ef565b34801561096957600080fd5b5061027e6004803603608081101561098057600080fd5b813591600160a060020a0360208201351691604082013591908101906080810160608201356401000000008111156109b757600080fd5b8201836020820111156109c957600080fd5b803590602001918460018302840111640100000000831117156109eb57600080fd5b50909250905061160e565b348015610a0257600080fd5b5061022e60048036036020811015610a1957600080fd5b5035600160a060020a0316611758565b348015610a3557600080fd5b5061022e60048036036080811015610a4c57600080fd5b600160a060020a0382351691602081013591810190606081016040820135640100000000811115610a7c57600080fd5b820183602082011115610a8e57600080fd5b80359060200191846001830284011164010000000083111715610ab057600080fd5b919390929091602081019035640100000000811115610ace57600080fd5b820183602082011115610ae057600080fd5b80359060200191846001830284011164010000000083111715610b0257600080fd5b5090925090506117ae565b60048054604080516020601f6002600019610100600188161502019095169490940493840181900481028201810190925282815260609390929091830182828015610b995780601f10610b6e57610100808354040283529160200191610b99565b820191906000526020600020905b815481529060010190602001808311610b7c57829003601f168201915b505050505090505b90565b3360008181526013602090815260408083208684528252808320600160a060020a0386168085529252808320805460ff1916600117905551909185917f3646a897c70797ecc134b0adc32f471b07bf1d6f451133b0384badab531e3fd69190a45050565b3360008181526013602090815260408083208684528252808320600160a060020a0386168085529252808320805460ff1916905551909185917f3b287c4f1bab4df949b33bceacef984f544dc5d5479930d00e4ee8c9d8dd96f29190a45050565b60075490565b81818080601f01602080910402602001604051908101604052809392919081815260200183838082843760009201829052503381526001602052604090205460ff169250829150610cc990505750610cc9816000806117b6565b1515610d21576040805160e560020a62461bcd0281526020600482015260356024820152600080516020612dc38339815191526044820152600080516020612de3833981519152606482015290519081900360840190fd5b336000818152600260209081526040918290208054600101905581519283529051600080516020612e038339815191529281900390910190a1610dab3333878787878080601f016020809104026020016040519081016040528093929190818152602001838380828437600092018290525060408051602081019091529081529250611918915050565b5050505050565b600160a060020a03811660009081526010602090815260408083208584529091529020545b92915050565b60065490565b600160a060020a0381166000908152600260205260409020545b919050565b6060600d805480602002602001604051908101604052809291908181526020018280548015610b9957602002820191906000526020600020905b815481526020019060010190808311610e3c575050505050905090565b6000610e66848484611ae0565b90505b9392505050565b600160a060020a031660009081526009602052604090205490565b610e9361148f565b1515610e9e57600080fd5b60008054604051600160a060020a03909116907f8be0079c531659141344cd1fd0a4f28419497f9722a3daafe3b4186f6b6457e0908390a36000805473ffffffffffffffffffffffffffffffffffffffff19169055565b600160a060020a031660009081526001602052604090205460ff1690565b600160a060020a0381166000908152600f6020908152604091829020805483518184028101840190945280845260609392830182828015610f7357602002820191906000526020600020905b815481526020019060010190808311610f5f575b50505050509050919050565b6060600b805480602002602001604051908101604052809291908181526020018280548015610b9957602002820191906000526020600020905b8154600160a060020a03168152600190910190602001808311610fb9575050505050905090565b600081815260146020908152604091829020805483518184028101840190945280845260609392830182828015610f7357602002820191906000526020600020905b8154600160a060020a031681526001909101906020018083116110225750505050509050919050565b81818080601f01602080910402602001604051908101604052809392919081815260200183838082843760009201829052503381526001602052604090205460ff1692508291506110a5905057506110a5816000806117b6565b15156110fd576040805160e560020a62461bcd0281526020600482015260356024820152600080516020612dc38339815191526044820152600080516020612de3833981519152606482015290519081900360840190fd5b336000818152600260209081526040918290208054600101905581519283529051600080516020612e038339815191529281900390910190a16000600160a060020a0389161561114d578861114f565b335b905061115b3382611b64565b15156111d7576040805160e560020a62461bcd02815260206004820152602b60248201527f41373a205472616e7366657220426c6f636b6564202d204964656e746974792060448201527f7265737472696374696f6e000000000000000000000000000000000000000000606482015290519081900360840190fd5b61124e33828a8a8a8a8080601f01602080910402602001604051908101604052809392919081815260200183838082843760009201919091525050604080516020601f8e018190048102820181019092528c815292508c91508b908190840183828082843760009201919091525061191892505050565b505050505050505050565b600082828080601f01602080910402602001604051908101604052809392919081815260200183838082843760009201829052503381526001602052604090205460ff1692508291506112b5905057506112b5816000806117b6565b151561130d576040805160e560020a62461bcd0281526020600482015260356024820152600080516020612dc38339815191526044820152600080516020612de3833981519152606482015290519081900360840190fd5b336000818152600260209081526040918290208054600101905581519283529051600080516020612e038339815191529281900390910190a16000600160a060020a038a161561135d578961135f565b335b905061136c8b3383611ae0565b15156113e8576040805160e560020a62461bcd02815260206004820152602b60248201527f41373a205472616e7366657220426c6f636b6564202d204964656e746974792060448201527f7265737472696374696f6e000000000000000000000000000000000000000000606482015290519081900360840190fd5b6114718b33838c8c8c8c8080601f016020809104026020016040519081016040528093929190818152602001838380828437600081840152601f19601f820116905080830192505050505050508b8b8080601f016020809104026020016040519081016040528093929190818152602001838380828437600092019190915250611bde92505050565b9b9a5050505050505050505050565b600054600160a060020a031690565b600054600160a060020a0316331490565b600160a060020a0381166000818152600a60209081526040808320338085529252808320805460ff19166001179055519092917ff4caeb2d6ca8932a215a353d0703c326ec2d81fc68170f320eb2ab49e9df61f991a350565b60058054604080516020601f6002600019610100600188161502019095169490940493840181900481028201810190925282815260609390929091830182828015610b995780601f10610b6e57610100808354040283529160200191610b99565b600160a060020a038116600090815260116020908152604091829020805483518184028101840190945280845260609392830182828015610f735760200282019190600052602060002090815481526020019060010190808311610f5f5750505050509050919050565b6000610e698383611b64565b505050565b3360009081526011602052604090206115d0908383612d3d565b6115f761148f565b151561160257600080fd5b61160b81611e4c565b50565b600082828080601f01602080910402602001604051908101604052809392919081815260200183838082843760009201829052503381526001602052604090205460ff16925082915061166a9050575061166a816000806117b6565b15156116c2576040805160e560020a62461bcd0281526020600482015260356024820152600080516020612dc38339815191526044820152600080516020612de3833981519152606482015290519081900360840190fd5b336000818152600260209081526040918290208054600101905581519283529051600080516020612e038339815191529281900390910190a161174d873333898989898080601f016020809104026020016040519081016040528093929190818152602001838380828437600092018290525060408051602081019091529081529250611bde915050565b979650505050505050565b600160a060020a0381166000818152600a60209081526040808320338085529252808320805460ff19169055519092917f50546e66e5f44d728365dc3908c63bc5cfeeab470722c1677e3073a6ac294aa191a350565b505050505050565b600080845111801561190357508360008151811015156117d257fe5b90602001015160f860020a900460f860020a027effffffffffffffffffffffffffffffffffffffffffffffffffffffffffffff19167f10000000000000000000000000000000000000000000000000000000000000001480611896575083600081518110151561183e57fe5b90602001015160f860020a900460f860020a027effffffffffffffffffffffffffffffffffffffffffffffffffffffffffffff19167f1100000000000000000000000000000000000000000000000000000000000000145b8061190357508360008151811015156118ab57fe5b90602001015160f860020a900460f860020a027effffffffffffffffffffffffffffffffffffffffffffffffffffffffffffff19167f2200000000000000000000000000000000000000000000000000000000000000145b1561191057506001610e69565b506000610e69565b606061192386611ec9565b805190915015156119a4576040805160e560020a62461bcd02815260206004820152602860248201527f41383a205472616e7366657220426c6f636b6564202d20546f6b656e2072657360448201527f7472696374696f6e000000000000000000000000000000000000000000000000606482015290519081900360840190fd5b836000805b8351811015611a6357600160a060020a038916600090815260106020526040812085519091908690849081106119db57fe5b9060200190602002015181526020019081526020016000205491508183111515611a2f57611a258482815181101515611a1057fe5b906020019060200201518b8b8b878b8b611bde565b5060009250611a63565b611a558482815181101515611a4057fe5b906020019060200201518b8b8b868b8b611bde565b5081830392506001016119a9565b50811561124e576040805160e560020a62461bcd02815260206004820152602860248201527f41383a205472616e7366657220426c6f636b6564202d20546f6b656e2072657360448201527f7472696374696f6e000000000000000000000000000000000000000000000000606482015290519081900360840190fd5b6000611aec8383611b64565b80611b245750600160a060020a03808316600090815260136020908152604080832088845282528083209387168352929052205460ff165b80610e66575060085460ff168015610e66575050506000918252601560209081526040808420600160a060020a0393909316845291905290205460ff1690565b600081600160a060020a031683600160a060020a03161480611bab5750600160a060020a038084166000908152600a602090815260408083209386168352929052205460ff165b80610e69575060085460ff168015610e6957505050600160a060020a03166000908152600c602052604090205460ff1690565b600160a060020a03851660009081526010602090815260408083208a8452909152812054841115611c7f576040805160e560020a62461bcd02815260206004820152603260248201527f41343a205472616e7366657220426c6f636b6564202d2053656e64657220626160448201527f6c616e636520696e73756666696369656e740000000000000000000000000000606482015290519081900360840190fd5b8151889015801590611c915750835115155b15611ca357611ca08985611faa565b90505b611cae878a87611fd6565b611cbf89898989898989600161226b565b611cca8682876125e1565b85600160a060020a031687600160a060020a03168a7fff4e9a26af4eb73b8bacfaa4abd4fea03d9448e7b912dc5ff4019048875aa2d48b8989896040518085600160a060020a0316600160a060020a031681526020018481526020018060200180602001838103835285818151815260200191508051906020019080838360005b83811015611d63578181015183820152602001611d4b565b50505050905090810190601f168015611d905780820380516001836020036101000a031916815260200191505b50838103825284518152845160209182019186019080838360005b83811015611dc3578181015183820152602001611dab565b50505050905090810190601f168015611df05780820380516001836020036101000a031916815260200191505b50965050505050505060405180910390a4808914611e405760408051868152905182918b917f67c8ba31d2dd11f1384577b3405b04ed91eed1231e408432ad2458cab37b2fa19181900360200190a35b98975050505050505050565b600160a060020a0381161515611e6157600080fd5b60008054604051600160a060020a03808516939216917f8be0079c531659141344cd1fd0a4f28419497f9722a3daafe3b4186f6b6457e091a36000805473ffffffffffffffffffffffffffffffffffffffff1916600160a060020a0392909216919091179055565b600160a060020a03811660009081526011602052604090205460609015611f5457600160a060020a03821660009081526011602090815260409182902080548351818402810184019094528084529091830182828015611f4857602002820191906000526020600020905b815481526020019060010190808311611f34575b50505050509050610dfd565b6012805480602002602001604051908101604052809291908181526020018280548015611f485760200282019190600052602060002090815481526020019060010190808311611f345750505050509050610dfd565b60208101516000906000199080821415611fca5760408401519250611fce565b8492505b505092915050565b600160a060020a038316600090815260106020908152604080832085845290915290205461200a908263ffffffff61270d16565b600160a060020a0384166000908152601060209081526040808320868452825280832093909355600e90522054612047908263ffffffff61270d16565b6000838152600e6020908152604080832093909355600160a060020a03861682526010815282822085835290529081205415156121ab575060005b600160a060020a0384166000908152600f60205260409020548110156121ab57600160a060020a0384166000908152600f602052604090208054849190839081106120c957fe5b906000526020600020015414156121a357600160a060020a0384166000908152600f602052604090208054600019810190811061210257fe5b6000918252602080832090910154600160a060020a0387168352600f909152604090912080548390811061213257fe5b6000918252602080832090910192909255600160a060020a0386168152600f909152604090208054600019810190811061216857fe5b60009182526020808320909101829055600160a060020a0386168252600f90526040902080549061219d906000198301612d88565b506121ab565b600101612082565b6000838152600e60205260409020541515612265575060005b600d548110156122655782600d828154811015156121de57fe5b9060005260206000200154141561225d57600d8054600019810190811061220157fe5b9060005260206000200154600d8281548110151561221b57fe5b600091825260209091200155600d8054600019810190811061223957fe5b6000918252602082200155600d805490612257906000198301612d88565b50612265565b6001016121c4565b50505050565b600380546001019081905561227f85612722565b15156122fb576040805160e560020a62461bcd02815260206004820152602860248201527f41393a205472616e7366657220426c6f636b6564202d20546f6b656e2067726160448201527f6e756c6172697479000000000000000000000000000000000000000000000000606482015290519081900360840190fd5b600160a060020a0386161515612381576040805160e560020a62461bcd02815260206004820152602c60248201527f41363a205472616e7366657220426c6f636b6564202d2052656365697665722060448201527f6e6f7420656c696769626c650000000000000000000000000000000000000000606482015290519081900360840190fd5b600160a060020a038716600090815260096020526040902054851115612417576040805160e560020a62461bcd02815260206004820152603260248201527f41343a205472616e7366657220426c6f636b6564202d2053656e64657220626160448201527f6c616e636520696e73756666696369656e740000000000000000000000000000606482015290519081900360840190fd5b61242689898989898989612751565b600160a060020a03871660009081526009602052604090205461244f908663ffffffff61270d16565b600160a060020a038089166000908152600960205260408082209390935590881681522054612484908663ffffffff61293616565b600160a060020a0387166000908152600960205260409020556124ad8989898989898989612948565b85600160a060020a031687600160a060020a031689600160a060020a03167fe8f0a47da72ca43153c7a5693a827aa8456f52633de9870a736e5605bff4af6d888888604051808481526020018060200180602001838103835285818151815260200191508051906020019080838360005b8381101561253657818101518382015260200161251e565b50505050905090810190601f1680156125635780820380516001836020036101000a031916815260200191505b50838103825284518152845160209182019186019080838360005b8381101561259657818101518382015260200161257e565b50505050905090810190601f1680156125c35780820380516001836020036101000a031916815260200191505b509550505050505060405180910390a4600354811461124e57600080fd5b80156115d057600160a060020a0383166000908152601060209081526040808320858452909152902054151561263d57600160a060020a0383166000908152600f60209081526040822080546001810182559083529120018290555b600160a060020a0383166000908152601060209081526040808320858452909152902054612671908263ffffffff61293616565b600160a060020a0384166000908152601060209081526040808320868452825280832093909355600e9052205415156126da57600d80546001810182556000919091527fd7b6990105719101dabeb77144f2a3385c8033acd3af97e9423a695e81ad1eb5018290555b6000828152600e60205260409020546126f9908263ffffffff61293616565b6000838152600e6020526040902055505050565b60008282111561271c57600080fd5b50900390565b600654600090829061274a9061273e838263ffffffff612bb216565b9063ffffffff612bd616565b1492915050565b6000612792866040805190810160405280601281526020017f455243373737546f6b656e7353656e6465720000000000000000000000000000815250612c01565b9050600160a060020a0381161561292c5780600160a060020a0316637d25d7cd898989898989896040518863ffffffff1660e060020a0281526004018088815260200187600160a060020a0316600160a060020a0316815260200186600160a060020a0316600160a060020a0316815260200185600160a060020a0316600160a060020a031681526020018481526020018060200180602001838103835285818151815260200191508051906020019080838360005b83811015612860578181015183820152602001612848565b50505050905090810190601f16801561288d5780820380516001836020036101000a031916815260200191505b50838103825284518152845160209182019186019080838360005b838110156128c05781810151838201526020016128a8565b50505050905090810190601f1680156128ed5780820380516001836020036101000a031916815260200191505b509950505050505050505050600060405180830381600087803b15801561291357600080fd5b505af1158015612927573d6000803e3d6000fd5b505050505b5050505050505050565b600082820183811015610e6957600080fd5b6000612989866040805190810160405280601581526020017f455243373737546f6b656e73526563697069656e740000000000000000000000815250612c01565b9050600160a060020a03811615612b275780600160a060020a0316631551e6368a8a8a8a8a8a8a6040518863ffffffff1660e060020a0281526004018088815260200187600160a060020a0316600160a060020a0316815260200186600160a060020a0316600160a060020a0316815260200185600160a060020a0316600160a060020a031681526020018481526020018060200180602001838103835285818151815260200191508051906020019080838360005b83811015612a57578181015183820152602001612a3f565b50505050905090810190601f168015612a845780820380516001836020036101000a031916815260200191505b50838103825284518152845160209182019186019080838360005b83811015612ab7578181015183820152602001612a9f565b50505050905090810190601f168015612ae45780820380516001836020036101000a031916815260200191505b509950505050505050505050600060405180830381600087803b158015612b0a57600080fd5b505af1158015612b1e573d6000803e3d6000fd5b5050505061124e565b811561124e57612b3686612d1d565b151561124e576040805160e560020a62461bcd02815260206004820152602c60248201527f41363a205472616e7366657220426c6f636b6564202d2052656365697665722060448201527f6e6f7420656c696769626c650000000000000000000000000000000000000000606482015290519081900360840190fd5b6000808211612bc057600080fd5b60008284811515612bcd57fe5b04949350505050565b6000821515612be757506000610dd7565b828202828482811515612bf657fe5b0414610e6957600080fd5b600080826040516020018082805190602001908083835b60208310612c375780518252601f199092019160209182019101612c18565b51815160209384036101000a60001901801990921691161790526040805192909401828103601f190183528085528251928201929092207faabbb8ca000000000000000000000000000000000000000000000000000000008352600160a060020a038b16600484015260248301819052935193965073820b586c8c28125366c998641b09dcbe7d4cbf06955063aabbb8ca94506044808301949193509091829003018186803b158015612ce957600080fd5b505afa158015612cfd573d6000803e3d6000fd5b505050506040513d6020811015612d1357600080fd5b5051949350505050565b6000600160a060020a0382161515612d3757506000610dfd565b503b1590565b828054828255906000526020600020908101928215612d78579160200282015b82811115612d78578235825591602001919060010190612d5d565b50612d84929150612da8565b5090565b8154818355818111156115d0576000838152602090206115d09181019083015b610ba191905b80821115612d845760008155600101612dae56fe41333a205472616e7366657220426c6f636b6564202d2053656e646572206c6f636b757020706572696f64206e6f7420656e6465640000000000000000000000e20314ef67750397f75c06a974fa978eaf8f26660fa2e4c14078f87ed2f9e8d7a165627a7a72305820b209ba4196a61929f7297ffab1419a30723507cb2b524fd8e85350bbbc92d1f80029",
  "source": "/*\n * This code has not been reviewed.\n * Do not use or deploy this code before reviewing it personally first.\n */\npragma solidity >=0.4.21 <0.6.0;\n\nimport \"./IERC1410.sol\";\nimport \"../ERC777/ERC777.sol\";\n\n/**\n * @title ERC1410\n * @dev ERC1410 logic\n */\ncontract ERC1410 is IERC1410, ERC777 {\n\n  /******************** Mappings to find partition ******************************/\n  // List of partitions.\n  bytes32[] internal _totalPartitions;\n\n  // Mapping from partition to global balance of corresponding partition.\n  mapping (bytes32 => uint256) internal _totalSupplyByPartition;\n\n  // Mapping from tokenHolder to their partitions.\n  mapping (address => bytes32[]) internal _partitionsOf;\n\n  // Mapping from (tokenHolder, partition) to balance of corresponding partition.\n  mapping (address => mapping (bytes32 => uint256)) internal _balanceOfByPartition;\n\n  // Mapping from tokenHolder to their default partitions (for ERC777 and ERC20 compatibility).\n  mapping (address => bytes32[]) internal _defaultPartitionsOf;\n\n  // List of token default partitions (for ERC20 compatibility).\n  bytes32[] internal _tokenDefaultPartitions;\n  /****************************************************************************/\n\n  /**************** Mappings to find partition operators ************************/\n  // Mapping from (tokenHolder, partition, operator) to 'approved for partition' status. [TOKEN-HOLDER-SPECIFIC]\n  mapping (address => mapping (bytes32 => mapping (address => bool))) internal _authorizedOperatorByPartition;\n\n  // Mapping from partition to controllers for the partition. [NOT TOKEN-HOLDER-SPECIFIC]\n  mapping (bytes32 => address[]) internal _controllersByPartition;\n\n  // Mapping from (partition, operator) to PartitionController status. [NOT TOKEN-HOLDER-SPECIFIC]\n  mapping (bytes32 => mapping (address => bool)) internal _isControllerByPartition;\n  /****************************************************************************/\n\n  /**\n   * [ERC1410 CONSTRUCTOR]\n   * @dev Initialize ERC1410 parameters + register\n   * the contract implementation in ERC820Registry.\n   * @param name Name of the token.\n   * @param symbol Symbol of the token.\n   * @param granularity Granularity of the token.\n   * @param controllers Array of initial controllers.\n   * @param certificateSigner Address of the off-chain service which signs the\n   * conditional ownership certificates required for token transfers, issuance,\n   * redemption (Cf. CertificateController.sol).\n   */\n  constructor(\n    string memory name,\n    string memory symbol,\n    uint256 granularity,\n    address[]memory controllers,\n    address certificateSigner,\n    bytes32[]memory tokenDefaultPartitions\n  )\n    public\n    ERC777(name, symbol, granularity, controllers, certificateSigner)\n  {\n    _tokenDefaultPartitions = tokenDefaultPartitions;\n  }\n\n  /********************** ERC1410 EXTERNAL FUNCTIONS **************************/\n\n  /**\n   * [ERC1410 INTERFACE (1/10)]\n   * @dev Get balance of a tokenholder for a specific partition.\n   * @param partition Name of the partition.\n   * @param tokenHolder Address for which the balance is returned.\n   * @return Amount of token of partition 'partition' held by 'tokenHolder' in the token contract.\n   */\n  function balanceOfByPartition(bytes32 partition, address tokenHolder) external view returns (uint256) {\n    return _balanceOfByPartition[tokenHolder][partition];\n  }\n\n  /**\n   * [ERC1410 INTERFACE (2/10)]\n   * @dev Get partitions index of a tokenholder.\n   * @param tokenHolder Address for which the partitions index are returned.\n   * @return Array of partitions index of 'tokenHolder'.\n   */\n  function partitionsOf(address tokenHolder) external view returns (bytes32[]memory) {\n    return _partitionsOf[tokenHolder];\n  }\n\n  /**\n   * [ERC1410 INTERFACE (3/10)]\n   * @dev Transfer tokens from a specific partition.\n   * @param partition Name of the partition.\n   * @param to Token recipient.\n   * @param value Number of tokens to transfer.\n   * @param data Information attached to the transfer, by the token holder. [CONTAINS THE CONDITIONAL OWNERSHIP CERTIFICATE]\n   * @return Destination partition.\n   */\n  function transferByPartition(\n    bytes32 partition,\n    address to,\n    uint256 value,\n    bytes calldata data\n  )\n    external\n    isValidCertificate(data)\n    returns (bytes32)\n  {\n    return _transferByPartition(partition, msg.sender, msg.sender, to, value, data, \"\");\n  }\n\n  /**\n   * [ERC1410 INTERFACE (4/10)]\n   * @dev Transfer tokens from a specific partition through an operator.\n   * @param partition Name of the partition.\n   * @param from Token holder.\n   * @param to Token recipient.\n   * @param value Number of tokens to transfer.\n   * @param data Information attached to the transfer. [CAN CONTAIN THE DESTINATION PARTITION]\n   * @param operatorData Information attached to the transfer, by the operator. [CONTAINS THE CONDITIONAL OWNERSHIP CERTIFICATE]\n   * @return Destination partition.\n   */\n  function operatorTransferByPartition(\n    bytes32 partition,\n    address from,\n    address to,\n    uint256 value,\n    bytes calldata data,\n    bytes calldata operatorData\n  )\n    external\n    isValidCertificate(operatorData)\n    returns (bytes32)\n  {\n    address _from = (from == address(0)) ? msg.sender : from;\n    require(_isOperatorForPartition(partition, msg.sender, _from), \"A7: Transfer Blocked - Identity restriction\");\n\n    return _transferByPartition(partition, msg.sender, _from, to, value, data, operatorData);\n  }\n\n  /**\n   * [ERC1410 INTERFACE (5/10)]\n   * @dev Get default partitions to transfer from.\n   * Function used for ERC777 and ERC20 backwards compatibility.\n   * For example, a security token may return the bytes32(\"unrestricted\").\n   * @param tokenHolder Address for which we want to know the default partitions.\n   * @return Array of default partitions.\n   */\n  function getDefaultPartitions(address tokenHolder) external view returns (bytes32[]memory) {\n    return _defaultPartitionsOf[tokenHolder];\n  }\n\n  /**\n   * [ERC1410 INTERFACE (6/10)]\n   * @dev Set default partitions to transfer from.\n   * Function used for ERC777 and ERC20 backwards compatibility.\n   * @param partitions partitions to use by default when not specified.\n   */\n  function setDefaultPartitions(bytes32[]calldata partitions) external {\n    _defaultPartitionsOf[msg.sender] = partitions;\n  }\n\n  /**\n   * [ERC1410 INTERFACE (7/10)]\n   * @dev Get controllers for a given partition.\n   * Function used for ERC777 and ERC20 backwards compatibility.\n   * @param partition Name of the partition.\n   * @return Array of controllers for partition.\n   */\n  function controllersByPartition(bytes32 partition) external view returns (address[]memory) {\n    return _controllersByPartition[partition];\n  }\n\n  /**\n   * [ERC1410 INTERFACE (8/10)]\n   * @dev Set 'operator' as an operator for 'msg.sender' for a given partition.\n   * @param partition Name of the partition.\n   * @param operator Address to set as an operator for 'msg.sender'.\n   */\n  function authorizeOperatorByPartition(bytes32 partition, address operator) external {\n    _authorizedOperatorByPartition[msg.sender][partition][operator] = true;\n    emit AuthorizedOperatorByPartition(partition, operator, msg.sender);\n  }\n\n  /**\n   * [ERC1410 INTERFACE (9/10)]\n   * @dev Remove the right of the operator address to be an operator on a given\n   * partition for 'msg.sender' and to transfer and redeem tokens on its behalf.\n   * @param partition Name of the partition.\n   * @param operator Address to rescind as an operator on given partition for 'msg.sender'.\n   */\n  function revokeOperatorByPartition(bytes32 partition, address operator) external {\n    _authorizedOperatorByPartition[msg.sender][partition][operator] = false;\n    emit RevokedOperatorByPartition(partition, operator, msg.sender);\n  }\n\n  /**\n   * [ERC1410 INTERFACE (10/10)]\n   * @dev Indicate whether the operator address is an operator of the tokenHolder\n   * address for the given partition.\n   * @param partition Name of the partition.\n   * @param operator Address which may be an operator of tokenHolder for the given partition.\n   * @param tokenHolder Address of a token holder which may have the operator address as an operator for the given partition.\n   * @return 'true' if 'operator' is an operator of 'tokenHolder' for partition 'partition' and 'false' otherwise.\n   */\n  function isOperatorForPartition(bytes32 partition, address operator, address tokenHolder) external view returns (bool) {\n    return _isOperatorForPartition(partition, operator, tokenHolder);\n  }\n\n  /********************** ERC1410 INTERNAL FUNCTIONS **************************/\n\n  /**\n   * [INTERNAL]\n   * @dev Indicate whether the operator address is an operator of the tokenHolder\n   * address for the given partition.\n   * @param partition Name of the partition.\n   * @param operator Address which may be an operator of tokenHolder for the given partition.\n   * @param tokenHolder Address of a token holder which may have the operator address as an operator for the given partition.\n   * @return 'true' if 'operator' is an operator of 'tokenHolder' for partition 'partition' and 'false' otherwise.\n   */\n   function _isOperatorForPartition(bytes32 partition, address operator, address tokenHolder) internal view returns (bool) {\n     return (_isOperatorFor(operator, tokenHolder)\n       || _authorizedOperatorByPartition[tokenHolder][partition][operator]\n       || (_isControllable && _isControllerByPartition[partition][operator])\n     );\n   }\n\n  /**\n   * [INTERNAL]\n   * @dev Transfer tokens from a specific partition.\n   * @param fromPartition Partition of the tokens to transfer.\n   * @param operator The address performing the transfer.\n   * @param from Token holder.\n   * @param to Token recipient.\n   * @param value Number of tokens to transfer.\n   * @param data Information attached to the transfer. [CAN CONTAIN THE DESTINATION PARTITION]\n   * @param operatorData Information attached to the transfer, by the operator (if any).\n   * @return Destination partition.\n   */\n  function _transferByPartition(\n    bytes32 fromPartition,\n    address operator,\n    address from,\n    address to,\n    uint256 value,\n    bytes memory data,\n    bytes memory operatorData\n  )\n    internal\n    returns (bytes32)\n  {\n    require(_balanceOfByPartition[from][fromPartition] >= value, \"A4: Transfer Blocked - Sender balance insufficient\"); // ensure enough funds\n\n    bytes32 toPartition = fromPartition;\n\n    if(operatorData.length != 0 && data.length != 0) {\n      toPartition = _getDestinationPartition(fromPartition, data);\n    }\n\n    _removeTokenFromPartition(from, fromPartition, value);\n    _transferWithData(fromPartition, operator, from, to, value, data, operatorData, true);\n    _addTokenToPartition(to, toPartition, value);\n\n    emit TransferByPartition(fromPartition, operator, from, to, value, data, operatorData);\n\n    if(toPartition != fromPartition) {\n      emit ChangedPartition(fromPartition, toPartition, value);\n    }\n\n    return toPartition;\n  }\n\n  /**\n   * [INTERNAL]\n   * @dev Remove a token from a specific partition.\n   * @param from Token holder.\n   * @param partition Name of the partition.\n   * @param value Number of tokens to transfer.\n   */\n  function _removeTokenFromPartition(address from, bytes32 partition, uint256 value) internal {\n    _balanceOfByPartition[from][partition] = _balanceOfByPartition[from][partition].sub(value);\n    _totalSupplyByPartition[partition] = _totalSupplyByPartition[partition].sub(value);\n     uint i = 0;\n\n\n    // If the balance of the TokenHolder's partition is zero, finds and deletes the partition.\n    if(_balanceOfByPartition[from][partition] == 0) {\n      for ( i = 0; i < _partitionsOf[from].length; i++) {\n        if(_partitionsOf[from][i] == partition) {\n          _partitionsOf[from][i] = _partitionsOf[from][_partitionsOf[from].length - 1];\n          delete _partitionsOf[from][_partitionsOf[from].length - 1];\n          _partitionsOf[from].length--;\n          break;\n        }\n      }\n    }\n\n    // If the total supply is zero, finds and deletes the partition.\n    if(_totalSupplyByPartition[partition] == 0) {\n      for (i = 0; i < _totalPartitions.length; i++) {\n        if(_totalPartitions[i] == partition) {\n          _totalPartitions[i] = _totalPartitions[_totalPartitions.length - 1];\n          delete _totalPartitions[_totalPartitions.length - 1];\n          _totalPartitions.length--;\n          break;\n        }\n      }\n    }\n  }\n\n  /**\n   * [INTERNAL]\n   * @dev Add a token to a specific partition.\n   * @param to Token recipient.\n   * @param partition Name of the partition.\n   * @param value Number of tokens to transfer.\n   */\n  function _addTokenToPartition(address to, bytes32 partition, uint256 value) internal {\n    if(value != 0) {\n      if(_balanceOfByPartition[to][partition] == 0) {\n        _partitionsOf[to].push(partition);\n      }\n      _balanceOfByPartition[to][partition] = _balanceOfByPartition[to][partition].add(value);\n\n      if(_totalSupplyByPartition[partition] == 0) {\n        _totalPartitions.push(partition);\n      }\n      _totalSupplyByPartition[partition] = _totalSupplyByPartition[partition].add(value);\n    }\n  }\n\n  /**\n   * [INTERNAL]\n   * @dev Retrieve the destination partition from the 'data' field.\n   * By convention, a partition change is requested ONLY when 'data' starts\n   * with the flag: 0xffffffffffffffffffffffffffffffffffffffffffffffffffffffffffffffff\n   * When the flag is detected, the destination tranche is extracted from the\n   * 32 bytes following the flag.\n   * @param fromPartition Partition of the tokens to transfer.\n   * @param data Information attached to the transfer. [CAN CONTAIN THE DESTINATION PARTITION]\n   * @return Destination partition.\n   */\n  function _getDestinationPartition(bytes32 fromPartition, bytes memory data) internal pure returns(bytes32 toPartition) {\n    bytes32 changePartitionFlag = 0xffffffffffffffffffffffffffffffffffffffffffffffffffffffffffffffff;\n    bytes32 flag;\n    assembly {\n      flag := mload(add(data, 32))\n    }\n    if(flag == changePartitionFlag) {\n      assembly {\n        toPartition := mload(add(data, 64))\n      }\n    } else {\n      toPartition = fromPartition;\n    }\n  }\n\n  /**\n   * [INTERNAL]\n   * @dev Get the sender's default partition if setup, or the global default partition if not.\n   * @param tokenHolder Address for which the default partition is returned.\n   * @return Default partition.\n   */\n  function _getDefaultPartitions(address tokenHolder) internal view returns(bytes32[]memory) {\n    if(_defaultPartitionsOf[tokenHolder].length != 0) {\n      return _defaultPartitionsOf[tokenHolder];\n    } else {\n      return _tokenDefaultPartitions;\n    }\n  }\n\n\n  /********************* ERC1410 OPTIONAL FUNCTIONS ***************************/\n\n  /**\n   * [NOT MANDATORY FOR ERC1410 STANDARD]\n   * @dev Get list of existing partitions.\n   * @return Array of all exisiting partitions.\n   */\n  function totalPartitions() external view returns (bytes32[]memory) {\n    return _totalPartitions;\n  }\n\n  /**\n   * [NOT MANDATORY FOR ERC1410 STANDARD][SHALL BE CALLED ONLY FROM ERC1400]\n   * @dev Set list of token partition controllers.\n   * @param partition Name of the partition.\n   * @param operators Controller addresses.\n   */\n   function _setPartitionControllers(bytes32 partition, address[]memory operators) internal {\n     for (uint i = 0; i<_controllersByPartition[partition].length; i++){\n       _isControllerByPartition[partition][_controllersByPartition[partition][i]] = false;\n     }\n     for (uint j = 0; j<operators.length; j++){\n       _isControllerByPartition[partition][operators[j]] = true;\n     }\n     _controllersByPartition[partition] = operators;\n   }\n\n  /************** ERC777 BACKWARDS RETROCOMPATIBILITY *************************/\n\n  /**\n   * [NOT MANDATORY FOR ERC1410 STANDARD][OVERRIDES ERC777 METHOD]\n   * @dev Transfer the value of tokens from the address 'msg.sender' to the address 'to'.\n   * @param to Token recipient.\n   * @param value Number of tokens to transfer.\n   * @param data Information attached to the transfer, by the token holder. [CONTAINS THE CONDITIONAL OWNERSHIP CERTIFICATE]\n   */\n  function transferWithData(address to, uint256 value, bytes calldata data)\n    external\n    isValidCertificate(data)\n  {\n    _transferByDefaultPartitions(msg.sender, msg.sender, to, value, data, \"\");\n  }\n\n  /**\n   * [NOT MANDATORY FOR ERC1410 STANDARD][OVERRIDES ERC777 METHOD]\n   * @dev Transfer the value of tokens on behalf of the address from to the address to.\n   * @param from Token holder (or 'address(0)'' to set from to 'msg.sender').\n   * @param to Token recipient.\n   * @param value Number of tokens to transfer.\n   * @param data Information attached to the transfer, and intended for the token holder ('from'). [CAN CONTAIN THE DESTINATION PARTITION]\n   * @param operatorData Information attached to the transfer by the operator. [CONTAINS THE CONDITIONAL OWNERSHIP CERTIFICATE]\n   */\n  function transferFromWithData(address from, address to, uint256 value, bytes calldata data, bytes calldata operatorData)\n    external\n    isValidCertificate(operatorData)\n  {\n    address _from = (from == address(0)) ? msg.sender : from;\n\n    require(_isOperatorFor(msg.sender, _from), \"A7: Transfer Blocked - Identity restriction\");\n\n    _transferByDefaultPartitions(msg.sender, _from, to, value, data, operatorData);\n  }\n\n  /**\n   * [NOT MANDATORY FOR ERC1410 STANDARD][OVERRIDES ERC777 METHOD]\n   * @dev Empty function to erase ERC777 redeem() function since it doesn't handle partitions.\n   */\n  function redeem(uint256 /*value*/, bytes calldata /*data*/) external { // Comments to avoid compilation warnings for unused variables.\n  }\n\n  /**\n   * [NOT MANDATORY FOR ERC1410 STANDARD][OVERRIDES ERC777 METHOD]\n   * @dev Empty function to erase ERC777 redeemFrom() function since it doesn't handle partitions.\n   */\n  function redeemFrom(address /*from*/, uint256 /*value*/, bytes calldata /*data*/, bytes calldata /*operatorData*/) external { // Comments to avoid compilation warnings for unused variables.\n  }\n\n  /**\n   * [NOT MANDATORY FOR ERC1410 STANDARD]\n   * @dev Transfer tokens from default partitions.\n   * @param operator The address performing the transfer.\n   * @param from Token holder.\n   * @param to Token recipient.\n   * @param value Number of tokens to transfer.\n   * @param data Information attached to the transfer, and intended for the token holder ('from') [CAN CONTAIN THE DESTINATION PARTITION].\n   * @param operatorData Information attached to the transfer by the operator (if any).\n   */\n  function _transferByDefaultPartitions(\n    address operator,\n    address from,\n    address to,\n    uint256 value,\n    bytes memory data,\n    bytes memory operatorData\n  )\n    internal\n  {\n    bytes32[] memory _partitions = _getDefaultPartitions(from);\n    require(_partitions.length != 0, \"A8: Transfer Blocked - Token restriction\");\n\n    uint256 _remainingValue = value;\n    uint256 _localBalance;\n\n    for (uint i = 0; i < _partitions.length; i++) {\n      _localBalance = _balanceOfByPartition[from][_partitions[i]];\n      if(_remainingValue <= _localBalance) {\n        _transferByPartition(_partitions[i], operator, from, to, _remainingValue, data, operatorData);\n        _remainingValue = 0;\n        break;\n      } else {\n        _transferByPartition(_partitions[i], operator, from, to, _localBalance, data, operatorData);\n        _remainingValue = _remainingValue - _localBalance;\n      }\n    }\n\n    require(_remainingValue == 0, \"A8: Transfer Blocked - Token restriction\");\n  }\n}\n\n",
  "sourcePath": "/home/moez/Desktop/ProjetPFE/Dapps/ERC1400F/contracts/token/ERC1410/ERC1410.sol",
  "compiler": {
    "name": "solc",
    "version": "0.5.0+commit.1d4f565a.Emscripten.clang"
  },
  "schemaVersion": "3.0.9",
  "updatedAt": "2019-06-26T13:25:25.306Z",
  "devdoc": {
    "details": "ERC1410 logic",
    "methods": {
      "authorizeOperator(address)": {
        "details": "Set a third party operator address as an operator of 'msg.sender' to transfer and redeem tokens on its behalf.",
        "params": {
          "operator": "Address to set as an operator for 'msg.sender'."
        }
      },
      "authorizeOperatorByPartition(bytes32,address)": {
        "details": "Set 'operator' as an operator for 'msg.sender' for a given partition.",
        "params": {
          "operator": "Address to set as an operator for 'msg.sender'.",
          "partition": "Name of the partition."
        }
      },
      "balanceOf(address)": {
        "details": "Get the balance of the account with address 'tokenHolder'.",
        "params": {
          "tokenHolder": "Address for which the balance is returned."
        },
        "return": "Amount of token held by 'tokenHolder' in the token contract."
      },
      "balanceOfByPartition(bytes32,address)": {
        "details": "Get balance of a tokenholder for a specific partition.",
        "params": {
          "partition": "Name of the partition.",
          "tokenHolder": "Address for which the balance is returned."
        },
        "return": "Amount of token of partition 'partition' held by 'tokenHolder' in the token contract."
      },
      "certificateSigners(address)": {
        "details": "Get certificate signer authorization for an operator.",
        "params": {
          "operator": "Address whom to check the certificate signer authorization for."
        },
        "return": "bool 'true' if operator is authorized as certificate signer, 'false' if not."
      },
      "checkCount(address)": {
        "details": "Get number of transations already sent to this contract by the sender",
        "params": {
          "sender": "Address whom to check the counter of."
        },
        "return": "uint256 Number of transaction already sent to this contract."
      },
      "constructor": {
        "details": "Initialize ERC1410 parameters + register the contract implementation in ERC820Registry.",
        "params": {
          "certificateSigner": "Address of the off-chain service which signs the conditional ownership certificates required for token transfers, issuance, redemption (Cf. CertificateController.sol).",
          "controllers": "Array of initial controllers.",
          "granularity": "Granularity of the token.",
          "name": "Name of the token.",
          "symbol": "Symbol of the token."
        }
      },
      "controllers()": {
        "details": "Get the list of controllers as defined by the token contract.",
        "return": "List of addresses of all the controllers."
      },
      "controllersByPartition(bytes32)": {
        "details": "Get controllers for a given partition. Function used for ERC777 and ERC20 backwards compatibility.",
        "params": {
          "partition": "Name of the partition."
        },
        "return": "Array of controllers for partition."
      },
      "getDefaultPartitions(address)": {
        "details": "Get default partitions to transfer from. Function used for ERC777 and ERC20 backwards compatibility. For example, a security token may return the bytes32(\"unrestricted\").",
        "params": {
          "tokenHolder": "Address for which we want to know the default partitions."
        },
        "return": "Array of default partitions."
      },
      "granularity()": {
        "details": "Get the smallest part of the token thats not divisible.",
        "return": "The smallest non-divisible part of the token."
      },
      "isOperatorFor(address,address)": {
        "details": "Indicate whether the operator address is an operator of the tokenHolder address.",
        "params": {
          "operator": "Address which may be an operator of tokenHolder.",
          "tokenHolder": "Address of a token holder which may have the operator address as an operator."
        },
        "return": "'true' if operator is an operator of 'tokenHolder' and 'false' otherwise."
      },
      "isOperatorForPartition(bytes32,address,address)": {
        "details": "Indicate whether the operator address is an operator of the tokenHolder address for the given partition.",
        "params": {
          "operator": "Address which may be an operator of tokenHolder for the given partition.",
          "partition": "Name of the partition.",
          "tokenHolder": "Address of a token holder which may have the operator address as an operator for the given partition."
        },
        "return": "'true' if 'operator' is an operator of 'tokenHolder' for partition 'partition' and 'false' otherwise."
      },
      "isOwner()": {
        "return": "true if `msg.sender` is the owner of the contract."
      },
      "name()": {
        "details": "Get the name of the token, e.g., \"MyToken\".",
        "return": "Name of the token."
      },
      "operatorTransferByPartition(bytes32,address,address,uint256,bytes,bytes)": {
        "details": "Transfer tokens from a specific partition through an operator.",
        "params": {
          "data": "Information attached to the transfer. [CAN CONTAIN THE DESTINATION PARTITION]",
          "from": "Token holder.",
          "operatorData": "Information attached to the transfer, by the operator. [CONTAINS THE CONDITIONAL OWNERSHIP CERTIFICATE]",
          "partition": "Name of the partition.",
          "to": "Token recipient.",
          "value": "Number of tokens to transfer."
        },
        "return": "Destination partition."
      },
      "owner()": {
        "return": "the address of the owner."
      },
      "partitionsOf(address)": {
        "details": "Get partitions index of a tokenholder.",
        "params": {
          "tokenHolder": "Address for which the partitions index are returned."
        },
        "return": "Array of partitions index of 'tokenHolder'."
      },
      "redeem(uint256,bytes)": {
        "details": "Empty function to erase ERC777 redeem() function since it doesn't handle partitions."
      },
      "redeemFrom(address,uint256,bytes,bytes)": {
        "details": "Empty function to erase ERC777 redeemFrom() function since it doesn't handle partitions."
      },
      "renounceOwnership()": {
        "details": "Allows the current owner to relinquish control of the contract. It will not be possible to call the functions with the `onlyOwner` modifier anymore."
      },
      "revokeOperator(address)": {
        "details": "Remove the right of the operator address to be an operator for 'msg.sender' and to transfer and redeem tokens on its behalf.",
        "params": {
          "operator": "Address to rescind as an operator for 'msg.sender'."
        }
      },
      "revokeOperatorByPartition(bytes32,address)": {
        "details": "Remove the right of the operator address to be an operator on a given partition for 'msg.sender' and to transfer and redeem tokens on its behalf.",
        "params": {
          "operator": "Address to rescind as an operator on given partition for 'msg.sender'.",
          "partition": "Name of the partition."
        }
      },
      "setDefaultPartitions(bytes32[])": {
        "details": "Set default partitions to transfer from. Function used for ERC777 and ERC20 backwards compatibility.",
        "params": {
          "partitions": "partitions to use by default when not specified."
        }
      },
      "symbol()": {
        "details": "Get the symbol of the token, e.g., \"MYT\".",
        "return": "Symbol of the token."
      },
      "totalPartitions()": {
        "details": "Get list of existing partitions.",
        "return": "Array of all exisiting partitions."
      },
      "totalSupply()": {
        "details": "Get the total number of issued tokens.",
        "return": "Total supply of tokens currently in circulation."
      },
      "transferByPartition(bytes32,address,uint256,bytes)": {
        "details": "Transfer tokens from a specific partition.",
        "params": {
          "data": "Information attached to the transfer, by the token holder. [CONTAINS THE CONDITIONAL OWNERSHIP CERTIFICATE]",
          "partition": "Name of the partition.",
          "to": "Token recipient.",
          "value": "Number of tokens to transfer."
        },
        "return": "Destination partition."
      },
      "transferFromWithData(address,address,uint256,bytes,bytes)": {
        "details": "Transfer the value of tokens on behalf of the address from to the address to.",
        "params": {
          "data": "Information attached to the transfer, and intended for the token holder ('from'). [CAN CONTAIN THE DESTINATION PARTITION]",
          "from": "Token holder (or 'address(0)'' to set from to 'msg.sender').",
          "operatorData": "Information attached to the transfer by the operator. [CONTAINS THE CONDITIONAL OWNERSHIP CERTIFICATE]",
          "to": "Token recipient.",
          "value": "Number of tokens to transfer."
        }
      },
      "transferOwnership(address)": {
        "details": "Allows the current owner to transfer control of the contract to a newOwner.",
        "params": {
          "newOwner": "The address to transfer ownership to."
        }
      },
      "transferWithData(address,uint256,bytes)": {
        "details": "Transfer the value of tokens from the address 'msg.sender' to the address 'to'.",
        "params": {
          "data": "Information attached to the transfer, by the token holder. [CONTAINS THE CONDITIONAL OWNERSHIP CERTIFICATE]",
          "to": "Token recipient.",
          "value": "Number of tokens to transfer."
        }
      }
    },
    "title": "ERC1410"
  },
  "userdoc": {
    "methods": {
      "authorizeOperator(address)": {
        "notice": "[ERC777 INTERFACE (7/13)]"
      },
      "authorizeOperatorByPartition(bytes32,address)": {
        "notice": "[ERC1410 INTERFACE (8/10)]"
      },
      "balanceOf(address)": {
        "notice": "[ERC777 INTERFACE (4/13)]"
      },
      "balanceOfByPartition(bytes32,address)": {
        "notice": "[ERC1410 INTERFACE (1/10)]"
      },
      "constructor": "[ERC1410 CONSTRUCTOR]",
      "controllers()": {
        "notice": "[ERC777 INTERFACE (6/13)]"
      },
      "controllersByPartition(bytes32)": {
        "notice": "[ERC1410 INTERFACE (7/10)]"
      },
      "getDefaultPartitions(address)": {
        "notice": "[ERC1410 INTERFACE (5/10)]"
      },
      "granularity()": {
        "notice": "[ERC777 INTERFACE (5/13)]"
      },
      "isOperatorFor(address,address)": {
        "notice": "[ERC777 INTERFACE (9/13)]"
      },
      "isOperatorForPartition(bytes32,address,address)": {
        "notice": "[ERC1410 INTERFACE (10/10)]"
      },
      "name()": {
        "notice": "[ERC777 INTERFACE (1/13)]"
      },
      "operatorTransferByPartition(bytes32,address,address,uint256,bytes,bytes)": {
        "notice": "[ERC1410 INTERFACE (4/10)]"
      },
      "partitionsOf(address)": {
        "notice": "[ERC1410 INTERFACE (2/10)]"
      },
      "redeem(uint256,bytes)": {
        "notice": "[NOT MANDATORY FOR ERC1410 STANDARD][OVERRIDES ERC777 METHOD]"
      },
      "redeemFrom(address,uint256,bytes,bytes)": {
        "notice": "[NOT MANDATORY FOR ERC1410 STANDARD][OVERRIDES ERC777 METHOD]"
      },
      "renounceOwnership()": {
        "notice": "Renouncing ownership will leave the contract without an owner, thereby removing any functionality that is only available to the owner."
      },
      "revokeOperator(address)": {
        "notice": "[ERC777 INTERFACE (8/13)]"
      },
      "revokeOperatorByPartition(bytes32,address)": {
        "notice": "[ERC1410 INTERFACE (9/10)]"
      },
      "setDefaultPartitions(bytes32[])": {
        "notice": "[ERC1410 INTERFACE (6/10)]"
      },
      "symbol()": {
        "notice": "[ERC777 INTERFACE (2/13)]"
      },
      "totalPartitions()": {
        "notice": "[NOT MANDATORY FOR ERC1410 STANDARD]"
      },
      "totalSupply()": {
        "notice": "[ERC777 INTERFACE (3/13)]"
      },
      "transferByPartition(bytes32,address,uint256,bytes)": {
        "notice": "[ERC1410 INTERFACE (3/10)]"
      },
      "transferFromWithData(address,address,uint256,bytes,bytes)": {
        "notice": "[NOT MANDATORY FOR ERC1410 STANDARD][OVERRIDES ERC777 METHOD]"
      },
      "transferWithData(address,uint256,bytes)": {
        "notice": "[NOT MANDATORY FOR ERC1410 STANDARD][OVERRIDES ERC777 METHOD]"
      }
    }
  }
}