{
  "contractName": "ERC777",
  "abi": [
    {
      "constant": true,
      "inputs": [
        {
          "name": "sender",
          "type": "address"
        }
      ],
      "name": "checkCount",
      "outputs": [
        {
          "name": "",
          "type": "uint256"
        }
      ],
      "payable": false,
      "stateMutability": "view",
      "type": "function"
    },
    {
      "constant": false,
      "inputs": [],
      "name": "renounceOwnership",
      "outputs": [],
      "payable": false,
      "stateMutability": "nonpayable",
      "type": "function"
    },
    {
      "constant": true,
      "inputs": [
        {
          "name": "operator",
          "type": "address"
        }
      ],
      "name": "certificateSigners",
      "outputs": [
        {
          "name": "",
          "type": "bool"
        }
      ],
      "payable": false,
      "stateMutability": "view",
      "type": "function"
    },
    {
      "constant": true,
      "inputs": [],
      "name": "owner",
      "outputs": [
        {
          "name": "",
          "type": "address"
        }
      ],
      "payable": false,
      "stateMutability": "view",
      "type": "function"
    },
    {
      "constant": true,
      "inputs": [],
      "name": "isOwner",
      "outputs": [
        {
          "name": "",
          "type": "bool"
        }
      ],
      "payable": false,
      "stateMutability": "view",
      "type": "function"
    },
    {
      "constant": false,
      "inputs": [
        {
          "name": "newOwner",
          "type": "address"
        }
      ],
      "name": "transferOwnership",
      "outputs": [],
      "payable": false,
      "stateMutability": "nonpayable",
      "type": "function"
    },
    {
      "inputs": [
        {
          "name": "name",
          "type": "string"
        },
        {
          "name": "symbol",
          "type": "string"
        },
        {
          "name": "granularity",
          "type": "uint256"
        },
        {
          "name": "controllers",
          "type": "address[]"
        },
        {
          "name": "certificateSigner",
          "type": "address"
        }
      ],
      "payable": true,
      "stateMutability": "payable",
      "type": "constructor"
    },
    {
      "anonymous": false,
      "inputs": [
        {
          "indexed": false,
          "name": "sender",
          "type": "address"
        }
      ],
      "name": "Checked",
      "type": "event"
    },
    {
      "anonymous": false,
      "inputs": [
        {
          "indexed": true,
          "name": "previousOwner",
          "type": "address"
        },
        {
          "indexed": true,
          "name": "newOwner",
          "type": "address"
        }
      ],
      "name": "OwnershipTransferred",
      "type": "event"
    },
    {
      "anonymous": false,
      "inputs": [
        {
          "indexed": true,
          "name": "operator",
          "type": "address"
        },
        {
          "indexed": true,
          "name": "from",
          "type": "address"
        },
        {
          "indexed": true,
          "name": "to",
          "type": "address"
        },
        {
          "indexed": false,
          "name": "value",
          "type": "uint256"
        },
        {
          "indexed": false,
          "name": "data",
          "type": "bytes"
        },
        {
          "indexed": false,
          "name": "operatorData",
          "type": "bytes"
        }
      ],
      "name": "TransferWithData",
      "type": "event"
    },
    {
      "anonymous": false,
      "inputs": [
        {
          "indexed": true,
          "name": "operator",
          "type": "address"
        },
        {
          "indexed": true,
          "name": "to",
          "type": "address"
        },
        {
          "indexed": false,
          "name": "value",
          "type": "uint256"
        },
        {
          "indexed": false,
          "name": "data",
          "type": "bytes"
        },
        {
          "indexed": false,
          "name": "operatorData",
          "type": "bytes"
        }
      ],
      "name": "Issued",
      "type": "event"
    },
    {
      "anonymous": false,
      "inputs": [
        {
          "indexed": true,
          "name": "operator",
          "type": "address"
        },
        {
          "indexed": true,
          "name": "from",
          "type": "address"
        },
        {
          "indexed": false,
          "name": "value",
          "type": "uint256"
        },
        {
          "indexed": false,
          "name": "data",
          "type": "bytes"
        },
        {
          "indexed": false,
          "name": "operatorData",
          "type": "bytes"
        }
      ],
      "name": "Redeemed",
      "type": "event"
    },
    {
      "anonymous": false,
      "inputs": [
        {
          "indexed": true,
          "name": "operator",
          "type": "address"
        },
        {
          "indexed": true,
          "name": "tokenHolder",
          "type": "address"
        }
      ],
      "name": "AuthorizedOperator",
      "type": "event"
    },
    {
      "anonymous": false,
      "inputs": [
        {
          "indexed": true,
          "name": "operator",
          "type": "address"
        },
        {
          "indexed": true,
          "name": "tokenHolder",
          "type": "address"
        }
      ],
      "name": "RevokedOperator",
      "type": "event"
    },
    {
      "constant": true,
      "inputs": [],
      "name": "name",
      "outputs": [
        {
          "name": "",
          "type": "string"
        }
      ],
      "payable": false,
      "stateMutability": "view",
      "type": "function"
    },
    {
      "constant": true,
      "inputs": [],
      "name": "symbol",
      "outputs": [
        {
          "name": "",
          "type": "string"
        }
      ],
      "payable": false,
      "stateMutability": "view",
      "type": "function"
    },
    {
      "constant": true,
      "inputs": [],
      "name": "totalSupply",
      "outputs": [
        {
          "name": "",
          "type": "uint256"
        }
      ],
      "payable": false,
      "stateMutability": "view",
      "type": "function"
    },
    {
      "constant": true,
      "inputs": [
        {
          "name": "tokenHolder",
          "type": "address"
        }
      ],
      "name": "balanceOf",
      "outputs": [
        {
          "name": "",
          "type": "uint256"
        }
      ],
      "payable": false,
      "stateMutability": "view",
      "type": "function"
    },
    {
      "constant": true,
      "inputs": [],
      "name": "granularity",
      "outputs": [
        {
          "name": "",
          "type": "uint256"
        }
      ],
      "payable": false,
      "stateMutability": "view",
      "type": "function"
    },
    {
      "constant": true,
      "inputs": [],
      "name": "controllers",
      "outputs": [
        {
          "name": "",
          "type": "address[]"
        }
      ],
      "payable": false,
      "stateMutability": "view",
      "type": "function"
    },
    {
      "constant": false,
      "inputs": [
        {
          "name": "operator",
          "type": "address"
        }
      ],
      "name": "authorizeOperator",
      "outputs": [],
      "payable": false,
      "stateMutability": "nonpayable",
      "type": "function"
    },
    {
      "constant": false,
      "inputs": [
        {
          "name": "operator",
          "type": "address"
        }
      ],
      "name": "revokeOperator",
      "outputs": [],
      "payable": false,
      "stateMutability": "nonpayable",
      "type": "function"
    },
    {
      "constant": true,
      "inputs": [
        {
          "name": "operator",
          "type": "address"
        },
        {
          "name": "tokenHolder",
          "type": "address"
        }
      ],
      "name": "isOperatorFor",
      "outputs": [
        {
          "name": "",
          "type": "bool"
        }
      ],
      "payable": false,
      "stateMutability": "view",
      "type": "function"
    },
    {
      "constant": false,
      "inputs": [
        {
          "name": "to",
          "type": "address"
        },
        {
          "name": "value",
          "type": "uint256"
        },
        {
          "name": "data",
          "type": "bytes"
        }
      ],
      "name": "transferWithData",
      "outputs": [],
      "payable": false,
      "stateMutability": "nonpayable",
      "type": "function"
    },
    {
      "constant": false,
      "inputs": [
        {
          "name": "from",
          "type": "address"
        },
        {
          "name": "to",
          "type": "address"
        },
        {
          "name": "value",
          "type": "uint256"
        },
        {
          "name": "data",
          "type": "bytes"
        },
        {
          "name": "operatorData",
          "type": "bytes"
        }
      ],
      "name": "transferFromWithData",
      "outputs": [],
      "payable": false,
      "stateMutability": "nonpayable",
      "type": "function"
    },
    {
      "constant": false,
      "inputs": [
        {
          "name": "value",
          "type": "uint256"
        },
        {
          "name": "data",
          "type": "bytes"
        }
      ],
      "name": "redeem",
      "outputs": [],
      "payable": false,
      "stateMutability": "nonpayable",
      "type": "function"
    },
    {
      "constant": false,
      "inputs": [
        {
          "name": "from",
          "type": "address"
        },
        {
          "name": "value",
          "type": "uint256"
        },
        {
          "name": "data",
          "type": "bytes"
        },
        {
          "name": "operatorData",
          "type": "bytes"
        }
      ],
      "name": "redeemFrom",
      "outputs": [],
      "payable": false,
      "stateMutability": "nonpayable",
      "type": "function"
    }
  ],
  "bytecode": "0x60806040526040516200275738038062002757833981018060405260a08110156200002957600080fd5b8101908080516401000000008111156200004257600080fd5b820160208101848111156200005657600080fd5b81516401000000008111828201871017156200007157600080fd5b505092919060200180516401000000008111156200008e57600080fd5b82016020810184811115620000a257600080fd5b8151640100000000811182820187101715620000bd57600080fd5b50506020820151604090920180519194929391640100000000811115620000e357600080fd5b82016020810184811115620000f757600080fd5b81518560208202830111640100000000821117156200011557600080fd5b505060209091015160008054600160a060020a031916331780825560405193955091935083928392600160a060020a031691907f8be0079c531659141344cd1fd0a4f28419497f9722a3daafe3b4186f6b6457e0908290a362000183816001640100000000620002bf810204565b5050600160035584516200019f90600490602088019062000570565b508351620001b590600590602087019062000570565b50600060075560018310156200025257604080517f08c379a000000000000000000000000000000000000000000000000000000000815260206004820152603f60248201527f436f6e7374727563746f7220426c6f636b6564202d20546f6b656e206772616e60448201527f756c61726974792063616e206e6f74206265206c6f776572207468616e203100606482015290519081900360840190fd5b60068390556200026b8264010000000062000387810204565b60408051808201909152600b81527f455243373737546f6b656e0000000000000000000000000000000000000000006020820152620002b4903064010000000062000460810204565b5050505050620006a2565b600160a060020a03821615156200035c57604080517f08c379a0000000000000000000000000000000000000000000000000000000008152602060048201526024808201527f416374696f6e20426c6f636b6564202d204e6f7420612076616c69642061646460448201527f7265737300000000000000000000000000000000000000000000000000000000606482015290519081900360840190fd5b600160a060020a03919091166000908152600160205260409020805460ff1916911515919091179055565b60005b600b54811015620003e8576000600c6000600b84815481101515620003ab57fe5b600091825260208083209190910154600160a060020a031683528201929092526040019020805460ff19169115159190911790556001016200038a565b5060005b815181101562000446576001600c600084848151811015156200040b57fe5b602090810291909101810151600160a060020a03168252810191909152604001600020805460ff1916911515919091179055600101620003ec565b5080516200045c90600b906020840190620005f5565b5050565b6000826040516020018082805190602001908083835b60208310620004975780518252601f19909201916020918201910162000476565b51815160209384036101000a60001901801990921691161790526040805192909401828103601f19018352808552825192909101919091207f29965a1d00000000000000000000000000000000000000000000000000000000825230600483015260248201819052600160a060020a0388166044830152925192955073820b586c8c28125366c998641b09dcbe7d4cbf0694506329965a1d9350606480820193600093509182900301818387803b1580156200055257600080fd5b505af115801562000567573d6000803e3d6000fd5b50505050505050565b828054600181600116156101000203166002900490600052602060002090601f016020900481019282601f10620005b357805160ff1916838001178555620005e3565b82800160010185558215620005e3579182015b82811115620005e3578251825591602001919060010190620005c6565b50620005f19291506200065b565b5090565b8280548282559060005260206000209081019282156200064d579160200282015b828111156200064d5782518254600160a060020a031916600160a060020a0390911617825560209092019160019091019062000616565b50620005f19291506200067b565b6200067891905b80821115620005f1576000815560010162000662565b90565b6200067891905b80821115620005f1578054600160a060020a031916815560010162000682565b6120a580620006b26000396000f3fe6080604052600436106100ed5763ffffffff60e060020a60003504166306fdde0381146100f257806318160ddd1461017c5780632535f762146101a3578063556f0dc714610237578063691021901461024c57806370a082311461027f578063715018a6146102b257806371de6362146102c75780637cc0c3a71461030e578063868d5383146103735780638da5cb5b146104625780638f32d59b14610493578063959b8c3f146104a857806395d89b41146104db578063d95b6371146104f0578063e77c646d1461052b578063f2fde38b146105af578063fad8b32a146105e2578063ffa90f7f14610615575b600080fd5b3480156100fe57600080fd5b506101076106f9565b6040805160208082528351818301528351919283929083019185019080838360005b83811015610141578181015183820152602001610129565b50505050905090810190601f16801561016e5780820380516001836020036101000a031916815260200191505b509250505060405180910390f35b34801561018857600080fd5b5061019161078f565b60408051918252519081900360200190f35b3480156101af57600080fd5b50610235600480360360608110156101c657600080fd5b600160a060020a03823516916020810135918101906060810160408201356401000000008111156101f657600080fd5b82018360208201111561020857600080fd5b8035906020019184600183028401116401000000008311171561022a57600080fd5b509092509050610795565b005b34801561024357600080fd5b506101916108dd565b34801561025857600080fd5b506101916004803603602081101561026f57600080fd5b5035600160a060020a03166108e3565b34801561028b57600080fd5b50610191600480360360208110156102a257600080fd5b5035600160a060020a0316610902565b3480156102be57600080fd5b5061023561091d565b3480156102d357600080fd5b506102fa600480360360208110156102ea57600080fd5b5035600160a060020a0316610987565b604080519115158252519081900360200190f35b34801561031a57600080fd5b506103236109a5565b60408051602080825283518183015283519192839290830191858101910280838360005b8381101561035f578181015183820152602001610347565b505050509050019250505060405180910390f35b34801561037f57600080fd5b50610235600480360360a081101561039657600080fd5b600160a060020a038235811692602081013590911691604082013591908101906080810160608201356401000000008111156103d157600080fd5b8201836020820111156103e357600080fd5b8035906020019184600183028401116401000000008311171561040557600080fd5b91939092909160208101903564010000000081111561042357600080fd5b82018360208201111561043557600080fd5b8035906020019184600183028401116401000000008311171561045757600080fd5b509092509050610a06565b34801561046e57600080fd5b50610477610c19565b60408051600160a060020a039092168252519081900360200190f35b34801561049f57600080fd5b506102fa610c28565b3480156104b457600080fd5b50610235600480360360208110156104cb57600080fd5b5035600160a060020a0316610c39565b3480156104e757600080fd5b50610107610c92565b3480156104fc57600080fd5b506102fa6004803603604081101561051357600080fd5b50600160a060020a0381358116916020013516610cf3565b34801561053757600080fd5b506102356004803603604081101561054e57600080fd5b8135919081019060408101602082013564010000000081111561057057600080fd5b82018360208201111561058257600080fd5b803590602001918460018302840111640100000000831117156105a457600080fd5b509092509050610d08565b3480156105bb57600080fd5b50610235600480360360208110156105d257600080fd5b5035600160a060020a0316610e4b565b3480156105ee57600080fd5b506102356004803603602081101561060557600080fd5b5035600160a060020a0316610e6a565b34801561062157600080fd5b506102356004803603608081101561063857600080fd5b600160a060020a038235169160208101359181019060608101604082013564010000000081111561066857600080fd5b82018360208201111561067a57600080fd5b8035906020019184600183028401116401000000008311171561069c57600080fd5b9193909290916020810190356401000000008111156106ba57600080fd5b8201836020820111156106cc57600080fd5b803590602001918460018302840111640100000000831117156106ee57600080fd5b509092509050610ec0565b60048054604080516020601f60026000196101006001881615020190951694909404938401819004810282018101909252828152606093909290918301828280156107855780601f1061075a57610100808354040283529160200191610785565b820191906000526020600020905b81548152906001019060200180831161076857829003601f168201915b5050505050905090565b60075490565b81818080601f01602080910402602001604051908101604052809392919081815260200183838082843760009201829052503381526001602052604090205460ff1692508291506107ef905057506107ef816000806110ce565b1515610847576040805160e560020a62461bcd028152602060048201526035602482015260008051602061201a833981519152604482015260008051602061203a833981519152606482015290519081900360840190fd5b33600081815260026020908152604091829020805460010190558151928352905160008051602061205a8339815191529281900390910190a16108d660003333888888888080601f016020809104026020016040519081016040528093929190818152602001838380828437600092018290525060408051602081019091529081529250600191506112339050565b5050505050565b60065490565b600160a060020a0381166000908152600260205260409020545b919050565b600160a060020a031660009081526009602052604090205490565b610925610c28565b151561093057600080fd5b60008054604051600160a060020a03909116907f8be0079c531659141344cd1fd0a4f28419497f9722a3daafe3b4186f6b6457e0908390a36000805473ffffffffffffffffffffffffffffffffffffffff19169055565b600160a060020a031660009081526001602052604090205460ff1690565b6060600b80548060200260200160405190810160405280929190818152602001828054801561078557602002820191906000526020600020905b8154600160a060020a031681526001909101906020018083116109df575050505050905090565b81818080601f01602080910402602001604051908101604052809392919081815260200183838082843760009201829052503381526001602052604090205460ff169250829150610a6090505750610a60816000806110ce565b1515610ab8576040805160e560020a62461bcd028152602060048201526035602482015260008051602061201a833981519152604482015260008051602061203a833981519152606482015290519081900360840190fd5b33600081815260026020908152604091829020805460010190558151928352905160008051602061205a8339815191529281900390910190a16000600160a060020a03891615610b085788610b0a565b335b9050610b1633826115a9565b1515610b92576040805160e560020a62461bcd02815260206004820152602b60248201527f41373a205472616e7366657220426c6f636b6564202d204964656e746974792060448201527f7265737472696374696f6e000000000000000000000000000000000000000000606482015290519081900360840190fd5b610c0e600033838b8b8b8b8080601f01602080910402602001604051908101604052809392919081815260200183838082843760009201919091525050604080516020601f8f018190048102820181019092528d815292508d91508c908190840183828082843760009201919091525060019250611233915050565b505050505050505050565b600054600160a060020a031690565b600054600160a060020a0316331490565b600160a060020a0381166000818152600a60209081526040808320338085529252808320805460ff19166001179055519092917ff4caeb2d6ca8932a215a353d0703c326ec2d81fc68170f320eb2ab49e9df61f991a350565b60058054604080516020601f60026000196101006001881615020190951694909404938401819004810282018101909252828152606093909290918301828280156107855780601f1061075a57610100808354040283529160200191610785565b6000610cff83836115a9565b90505b92915050565b81818080601f01602080910402602001604051908101604052809392919081815260200183838082843760009201829052503381526001602052604090205460ff169250829150610d6290505750610d62816000806110ce565b1515610dba576040805160e560020a62461bcd028152602060048201526035602482015260008051602061201a833981519152604482015260008051602061203a833981519152606482015290519081900360840190fd5b33600081815260026020908152604091829020805460010190558151928352905160008051602061205a8339815191529281900390910190a1610e45600033338787878080601f016020809104026020016040519081016040528093929190818152602001838380828437600092018290525060408051602081019091529081529250611623915050565b50505050565b610e53610c28565b1515610e5e57600080fd5b610e678161196d565b50565b600160a060020a0381166000818152600a60209081526040808320338085529252808320805460ff19169055519092917f50546e66e5f44d728365dc3908c63bc5cfeeab470722c1677e3073a6ac294aa191a350565b81818080601f01602080910402602001604051908101604052809392919081815260200183838082843760009201829052503381526001602052604090205460ff169250829150610f1a90505750610f1a816000806110ce565b1515610f72576040805160e560020a62461bcd028152602060048201526035602482015260008051602061201a833981519152604482015260008051602061203a833981519152606482015290519081900360840190fd5b33600081815260026020908152604091829020805460010190558151928352905160008051602061205a8339815191529281900390910190a16000600160a060020a03881615610fc25787610fc4565b335b9050610fd033826115a9565b151561104c576040805160e560020a62461bcd02815260206004820152602b60248201527f41373a205472616e7366657220426c6f636b6564202d204964656e746974792060448201527f7265737472696374696f6e000000000000000000000000000000000000000000606482015290519081900360840190fd5b6110c4600033838a8a8a8080601f01602080910402602001604051908101604052809392919081815260200183838082843760009201919091525050604080516020601f8e018190048102820181019092528c815292508c91508b908190840183828082843760009201919091525061162392505050565b5050505050505050565b600080845111801561121b57508360008151811015156110ea57fe5b90602001015160f860020a900460f860020a027effffffffffffffffffffffffffffffffffffffffffffffffffffffffffffff19167f100000000000000000000000000000000000000000000000000000000000000014806111ae575083600081518110151561115657fe5b90602001015160f860020a900460f860020a027effffffffffffffffffffffffffffffffffffffffffffffffffffffffffffff19167f1100000000000000000000000000000000000000000000000000000000000000145b8061121b57508360008151811015156111c357fe5b90602001015160f860020a900460f860020a027effffffffffffffffffffffffffffffffffffffffffffffffffffffffffffff19167f2200000000000000000000000000000000000000000000000000000000000000145b156112285750600161122c565b5060005b9392505050565b6003805460010190819055611247856119ea565b15156112c3576040805160e560020a62461bcd02815260206004820152602860248201527f41393a205472616e7366657220426c6f636b6564202d20546f6b656e2067726160448201527f6e756c6172697479000000000000000000000000000000000000000000000000606482015290519081900360840190fd5b600160a060020a0386161515611349576040805160e560020a62461bcd02815260206004820152602c60248201527f41363a205472616e7366657220426c6f636b6564202d2052656365697665722060448201527f6e6f7420656c696769626c650000000000000000000000000000000000000000606482015290519081900360840190fd5b600160a060020a0387166000908152600960205260409020548511156113df576040805160e560020a62461bcd02815260206004820152603260248201527f41343a205472616e7366657220426c6f636b6564202d2053656e64657220626160448201527f6c616e636520696e73756666696369656e740000000000000000000000000000606482015290519081900360840190fd5b6113ee89898989898989611a19565b600160a060020a038716600090815260096020526040902054611417908663ffffffff611bfd16565b600160a060020a03808916600090815260096020526040808220939093559088168152205461144c908663ffffffff611c1216565b600160a060020a0387166000908152600960205260409020556114758989898989898989611c24565b85600160a060020a031687600160a060020a031689600160a060020a03167fe8f0a47da72ca43153c7a5693a827aa8456f52633de9870a736e5605bff4af6d888888604051808481526020018060200180602001838103835285818151815260200191508051906020019080838360005b838110156114fe5781810151838201526020016114e6565b50505050905090810190601f16801561152b5780820380516001836020036101000a031916815260200191505b50838103825284518152845160209182019186019080838360005b8381101561155e578181015183820152602001611546565b50505050905090810190601f16801561158b5780820380516001836020036101000a031916815260200191505b509550505050505060405180910390a46003548114610c0e57600080fd5b600081600160a060020a031683600160a060020a031614806115f05750600160a060020a038084166000908152600a602090815260408083209386168352929052205460ff165b80610cff575060085460ff168015610cff57505050600160a060020a03166000908152600c602052604090205460ff1690565b6003805460010190819055611637846119ea565b15156116b3576040805160e560020a62461bcd02815260206004820152602860248201527f41393a205472616e7366657220426c6f636b6564202d20546f6b656e2067726160448201527f6e756c6172697479000000000000000000000000000000000000000000000000606482015290519081900360840190fd5b600160a060020a0385161515611739576040805160e560020a62461bcd02815260206004820152602a60248201527f41353a205472616e7366657220426c6f636b6564202d2053656e646572206e6f60448201527f7420656c696769626c6500000000000000000000000000000000000000000000606482015290519081900360840190fd5b600160a060020a0385166000908152600960205260409020548411156117cf576040805160e560020a62461bcd02815260206004820152603260248201527f41343a205472616e7366657220426c6f636b6564202d2053656e64657220626160448201527f6c616e636520696e73756666696369656e740000000000000000000000000000606482015290519081900360840190fd5b6117df8787876000888888611a19565b600160a060020a038516600090815260096020526040902054611808908563ffffffff611bfd16565b600160a060020a038616600090815260096020526040902055600754611834908563ffffffff611bfd16565b60078190555084600160a060020a031686600160a060020a03167f1f58e3485c3f6fc2bddf52e2bd0d82ad5c19e1ac9ab403b1aa9f0a1794d2bfb6868686604051808481526020018060200180602001838103835285818151815260200191508051906020019080838360005b838110156118b95781810151838201526020016118a1565b50505050905090810190601f1680156118e65780820380516001836020036101000a031916815260200191505b50838103825284518152845160209182019186019080838360005b83811015611919578181015183820152602001611901565b50505050905090810190601f1680156119465780820380516001836020036101000a031916815260200191505b509550505050505060405180910390a3600354811461196457600080fd5b50505050505050565b600160a060020a038116151561198257600080fd5b60008054604051600160a060020a03808516939216917f8be0079c531659141344cd1fd0a4f28419497f9722a3daafe3b4186f6b6457e091a36000805473ffffffffffffffffffffffffffffffffffffffff1916600160a060020a0392909216919091179055565b6006546000908290611a1290611a06838263ffffffff611e8e16565b9063ffffffff611eb216565b1492915050565b6000611a5a866040805190810160405280601281526020017f455243373737546f6b656e7353656e6465720000000000000000000000000000815250611edd565b9050600160a060020a038116156110c45780600160a060020a0316637d25d7cd898989898989896040518863ffffffff1660e060020a0281526004018088815260200187600160a060020a0316600160a060020a0316815260200186600160a060020a0316600160a060020a0316815260200185600160a060020a0316600160a060020a031681526020018481526020018060200180602001838103835285818151815260200191508051906020019080838360005b83811015611b28578181015183820152602001611b10565b50505050905090810190601f168015611b555780820380516001836020036101000a031916815260200191505b50838103825284518152845160209182019186019080838360005b83811015611b88578181015183820152602001611b70565b50505050905090810190601f168015611bb55780820380516001836020036101000a031916815260200191505b509950505050505050505050600060405180830381600087803b158015611bdb57600080fd5b505af1158015611bef573d6000803e3d6000fd5b505050505050505050505050565b600082821115611c0c57600080fd5b50900390565b600082820183811015610cff57600080fd5b6000611c65866040805190810160405280601581526020017f455243373737546f6b656e73526563697069656e740000000000000000000000815250611edd565b9050600160a060020a03811615611e035780600160a060020a0316631551e6368a8a8a8a8a8a8a6040518863ffffffff1660e060020a0281526004018088815260200187600160a060020a0316600160a060020a0316815260200186600160a060020a0316600160a060020a0316815260200185600160a060020a0316600160a060020a031681526020018481526020018060200180602001838103835285818151815260200191508051906020019080838360005b83811015611d33578181015183820152602001611d1b565b50505050905090810190601f168015611d605780820380516001836020036101000a031916815260200191505b50838103825284518152845160209182019186019080838360005b83811015611d93578181015183820152602001611d7b565b50505050905090810190601f168015611dc05780820380516001836020036101000a031916815260200191505b509950505050505050505050600060405180830381600087803b158015611de657600080fd5b505af1158015611dfa573d6000803e3d6000fd5b50505050610c0e565b8115610c0e57611e1286611ff9565b1515610c0e576040805160e560020a62461bcd02815260206004820152602c60248201527f41363a205472616e7366657220426c6f636b6564202d2052656365697665722060448201527f6e6f7420656c696769626c650000000000000000000000000000000000000000606482015290519081900360840190fd5b6000808211611e9c57600080fd5b60008284811515611ea957fe5b04949350505050565b6000821515611ec357506000610d02565b828202828482811515611ed257fe5b0414610cff57600080fd5b600080826040516020018082805190602001908083835b60208310611f135780518252601f199092019160209182019101611ef4565b51815160209384036101000a60001901801990921691161790526040805192909401828103601f190183528085528251928201929092207faabbb8ca000000000000000000000000000000000000000000000000000000008352600160a060020a038b16600484015260248301819052935193965073820b586c8c28125366c998641b09dcbe7d4cbf06955063aabbb8ca94506044808301949193509091829003018186803b158015611fc557600080fd5b505afa158015611fd9573d6000803e3d6000fd5b505050506040513d6020811015611fef57600080fd5b5051949350505050565b6000600160a060020a0382161515612013575060006108fd565b503b159056fe41333a205472616e7366657220426c6f636b6564202d2053656e646572206c6f636b757020706572696f64206e6f7420656e6465640000000000000000000000e20314ef67750397f75c06a974fa978eaf8f26660fa2e4c14078f87ed2f9e8d7a165627a7a723058209087e0bfdfbfbd23d6b6daac54bf262590bbcfb5888a9ff4f7f8126b4d1cd1310029",
  "source": "pragma solidity >=0.5.0;\n\nimport \"../../../node_modules/openzeppelin-solidity/contracts/math/SafeMath.sol\";\nimport \"../../../node_modules/openzeppelin-solidity/contracts/ownership/Ownable.sol\";\nimport \"../../../node_modules/openzeppelin-solidity/contracts/utils/ReentrancyGuard.sol\";\nimport \"./ERC820Client.sol\";\n\nimport \"../../CertificateController/CertificateController.sol\";\n\nimport \"./IERC777.sol\";\nimport \"./IERC777TokensSender.sol\";\nimport \"./IERC777TokensRecipient.sol\";\n\n/**\n * @title ERC777\n * @dev ERC777 logic\n */\ncontract ERC777 is IERC777, Ownable, ERC820Client , CertificateController, ReentrancyGuard {\n  using SafeMath for uint256;\n\n  string internal _name;\n  string internal _symbol;\n  uint256 internal _granularity;\n  uint256 internal _totalSupply;\n\n  // Indicate whether the token can still be controlled by operators or not anymore.\n  bool internal _isControllable;\n\n  // Mapping from tokenHolder to balance.\n  mapping(address => uint256) internal _balances;\n\n  /******************** Mappings related to operator **************************/\n  // Mapping from (operator, tokenHolder) to authorized status. [TOKEN-HOLDER-SPECIFIC]\n  mapping(address => mapping(address => bool)) internal _authorizedOperator;\n\n  // Array of controllers. [GLOBAL - NOT TOKEN-HOLDER-SPECIFIC]\n  address[] internal _controllers;\n\n  // Mapping from operator to controller status. [GLOBAL - NOT TOKEN-HOLDER-SPECIFIC]\n  mapping(address => bool) internal _isController;\n  /****************************************************************************/\n\n  /**\n   * [ERC777 CONSTRUCTOR]\n   * @dev Initialize ERC777 and CertificateController parameters + register\n   * the contract implementation in ERC820Registry.\n   * @param name Name of the token.\n   * @param symbol Symbol of the token.\n   * @param granularity Granularity of the token.\n   * @param controllers Array of initial controllers.\n   * @param certificateSigner Address of the off-chain service which signs the\n   * conditional ownership certificates required for token transfers, issuance,\n   * redemption (Cf. CertificateController.sol).\n   */\n  constructor(\n    string memory name,\n    string memory symbol,\n    uint256 granularity,\n    address[] memory controllers,\n    address certificateSigner\n  )payable\n    public\n    CertificateController(certificateSigner)\n  {\n    _name = name;\n    _symbol = symbol;\n    _totalSupply = 0;\n    require(granularity >= 1, \"Constructor Blocked - Token granularity can not be lower than 1\");\n    _granularity = granularity;\n\n    _setControllers(controllers);\n\n    setInterfaceImplementation(\"ERC777Token\", address(this));\n  }\n\n  /********************** ERC777 EXTERNAL FUNCTIONS ***************************/\n\n  /**\n   * [ERC777 INTERFACE (1/13)]\n   * @dev Get the name of the token, e.g., \"MyToken\".\n   * @return Name of the token.\n   */\n  function name() external view returns(string memory) {\n    return _name;\n  }\n\n  /**\n   * [ERC777 INTERFACE (2/13)]\n   * @dev Get the symbol of the token, e.g., \"MYT\".\n   * @return Symbol of the token.\n   */\n  function symbol() external view returns(string memory) {\n    return _symbol;\n  }\n\n  /**\n   * [ERC777 INTERFACE (3/13)]\n   * @dev Get the total number of issued tokens.\n   * @return Total supply of tokens currently in circulation.\n   */\n  function totalSupply() external view returns (uint256) {\n    return _totalSupply;\n  }\n\n  /**\n   * [ERC777 INTERFACE (4/13)]\n   * @dev Get the balance of the account with address 'tokenHolder'.\n   * @param tokenHolder Address for which the balance is returned.\n   * @return Amount of token held by 'tokenHolder' in the token contract.\n   */\n  function balanceOf(address tokenHolder) external view returns (uint256) {\n    return _balances[tokenHolder];\n  }\n\n  /**\n   * [ERC777 INTERFACE (5/13)]\n   * @dev Get the smallest part of the token thats not divisible.\n   * @return The smallest non-divisible part of the token.\n   */\n  function granularity() external view returns(uint256) {\n    return _granularity;\n  }\n\n  /**\n   * [ERC777 INTERFACE (6/13)]\n   * @dev Get the list of controllers as defined by the token contract.\n   * @return List of addresses of all the controllers.\n   */\n  function controllers() external view returns (address[] memory) {\n    return _controllers;\n  }\n\n  /**\n   * [ERC777 INTERFACE (7/13)]\n   * @dev Set a third party operator address as an operator of 'msg.sender' to transfer\n   * and redeem tokens on its behalf.\n   * @param operator Address to set as an operator for 'msg.sender'.\n   */\n  function authorizeOperator(address operator) external {\n    _authorizedOperator[operator][msg.sender] = true;\n    emit AuthorizedOperator(operator, msg.sender);\n  }\n\n  /**\n   * [ERC777 INTERFACE (8/13)]\n   * @dev Remove the right of the operator address to be an operator for 'msg.sender'\n   * and to transfer and redeem tokens on its behalf.\n   * @param operator Address to rescind as an operator for 'msg.sender'.\n   */\n  function revokeOperator(address operator) external {\n    _authorizedOperator[operator][msg.sender] = false;\n    emit RevokedOperator(operator, msg.sender);\n  }\n\n  /**\n   * [ERC777 INTERFACE (9/13)]\n   * @dev Indicate whether the operator address is an operator of the tokenHolder address.\n   * @param operator Address which may be an operator of tokenHolder.\n   * @param tokenHolder Address of a token holder which may have the operator address as an operator.\n   * @return 'true' if operator is an operator of 'tokenHolder' and 'false' otherwise.\n   */\n  function isOperatorFor(address operator, address tokenHolder) external view returns (bool) {\n    return _isOperatorFor(operator, tokenHolder);\n  }\n\n  /**\n   * [ERC777 INTERFACE (10/13)]\n   * @dev Transfer the amount of tokens from the address 'msg.sender' to the address 'to'.\n   * @param to Token recipient.\n   * @param value Number of tokens to transfer.\n   * @param data Information attached to the transfer, by the token holder. [CONTAINS THE CONDITIONAL OWNERSHIP CERTIFICATE]\n   */\n  function transferWithData(address to, uint256 value, bytes calldata data)\n    external\n    isValidCertificate(data)\n  {\n    _transferWithData(\"\", msg.sender, msg.sender, to, value, data, \"\", true);\n  }\n\n  /**\n   * [ERC777 INTERFACE (11/13)]\n   * @dev Transfer the amount of tokens on behalf of the address 'from' to the address 'to'.\n   * @param from Token holder (or 'address(0)' to set from to 'msg.sender').\n   * @param to Token recipient.\n   * @param value Number of tokens to transfer.\n   * @param data Information attached to the transfer, and intended for the token holder ('from').\n   * @param operatorData Information attached to the transfer by the operator. [CONTAINS THE CONDITIONAL OWNERSHIP CERTIFICATE]\n   */ \n  function transferFromWithData(address from, address to, uint256 value, bytes calldata data, bytes calldata operatorData)\n    external\n    isValidCertificate(operatorData)\n  {\n    address _from = (from == address(0)) ? msg.sender : from;\n\n    require(_isOperatorFor(msg.sender, _from), \"A7: Transfer Blocked - Identity restriction\");\n\n    _transferWithData(\"\", msg.sender, _from, to, value, data, operatorData, true);\n  }\n\n  /**\n   * [ERC777 INTERFACE (12/13)]\n   * @dev Redeem the amount of tokens from the address 'msg.sender'.\n   * @param value Number of tokens to redeem.\n   * @param data Information attached to the redemption, by the token holder. [CONTAINS THE CONDITIONAL OWNERSHIP CERTIFICATE]\n   */\n  function redeem(uint256 value, bytes calldata data)\n    external\n    isValidCertificate(data)\n  {\n    _redeem(\"\", msg.sender, msg.sender, value, data, \"\");\n  }\n\n  /**\n   * [ERC777 INTERFACE (13/13)]\n   * @dev Redeem the amount of tokens on behalf of the address from.\n   * @param from Token holder whose tokens will be redeemed (or address(0) to set from to msg.sender).\n   * @param value Number of tokens to redeem.\n   * @param data Information attached to the redemption.\n   * @param operatorData Information attached to the redemption, by the operator. [CONTAINS THE CONDITIONAL OWNERSHIP CERTIFICATE]\n   */\n  function redeemFrom(address from, uint256 value, bytes calldata data, bytes calldata operatorData)\n    external\n    isValidCertificate(operatorData)\n  {\n    address _from = (from == address(0)) ? msg.sender : from;\n\n    require(_isOperatorFor(msg.sender, _from), \"A7: Transfer Blocked - Identity restriction\");\n\n    _redeem(\"\", msg.sender, _from, value, data, operatorData);\n  }\n\n  /********************** ERC777 INTERNAL FUNCTIONS ***************************/\n\n  /**\n   * [INTERNAL]\n   * @dev Check if 'value' is multiple of the granularity.\n   * @param value The quantity that want's to be checked.\n   * @return 'true' if 'value' is a multiple of the granularity.\n   */\n  function _isMultiple(uint256 value) internal view returns(bool) {\n    return(value.div(_granularity).mul(_granularity) == value);\n  }\n\n  /**\n   * [INTERNAL]\n   * @dev Check whether an address is a regular address or not.\n   * @param addr Address of the contract that has to be checked.\n   * @return 'true' if 'addr' is a regular address (not a contract).\n   */\n  function _isRegularAddress(address addr) internal view returns(bool) {\n    if (addr == address(0)) { return false; }\n    uint size;\n    assembly { size := extcodesize(addr) } // solhint-disable-line no-inline-assembly\n    return size == 0;\n  }\n\n  /**\n   * [INTERNAL]\n   * @dev Indicate whether the operator address is an operator of the tokenHolder address.\n   * @param operator Address which may be an operator of 'tokenHolder'.\n   * @param tokenHolder Address of a token holder which may have the 'operator' address as an operator.\n   * @return 'true' if 'operator' is an operator of 'tokenHolder' and 'false' otherwise.\n   */\n  function _isOperatorFor(address operator, address tokenHolder) internal view returns (bool) {\n    return (operator == tokenHolder\n      || _authorizedOperator[operator][tokenHolder]\n      || (_isControllable && _isController[operator])\n    );\n  }\n\n   /**\n    * [INTERNAL]\n    * @dev Perform the transfer of tokens.\n    * @param partition Name of the partition (bytes32 to be left empty for ERC777 transfer).\n    * @param operator The address performing the transfer.\n    * @param from Token holder.\n    * @param to Token recipient.\n    * @param value Number of tokens to transfer.\n    * @param data Information attached to the transfer.\n    * @param operatorData Information attached to the transfer by the operator (if any)..\n    * @param preventLocking 'true' if you want this function to throw when tokens are sent to a contract not\n    * implementing 'erc777tokenHolder'.\n    * ERC777 native transfer functions MUST set this parameter to 'true', and backwards compatible ERC20 transfer\n    * functions SHOULD set this parameter to 'false'.\n    */\n  function _transferWithData(\n    bytes32 partition,\n    address operator,\n    address from,\n    address to,\n    uint256 value,\n    bytes memory data,\n    bytes memory operatorData,\n    bool preventLocking\n  )\n    internal\n    nonReentrant\n  {\n    require(_isMultiple(value), \"A9: Transfer Blocked - Token granularity\");\n    require(to != address(0), \"A6: Transfer Blocked - Receiver not eligible\");\n    require(_balances[from] >= value, \"A4: Transfer Blocked - Sender balance insufficient\");\n\n    _callSender(partition, operator, from, to, value, data, operatorData);\n\n    _balances[from] = _balances[from].sub(value);\n    _balances[to] = _balances[to].add(value);\n\n    _callRecipient(partition, operator, from, to, value, data, operatorData, preventLocking);\n\n    emit TransferWithData(operator, from, to, value, data, operatorData);\n  }\n\n  /**\n   * [INTERNAL]\n   * @dev Perform the token redemption.\n   * @param partition Name of the partition (bytes32 to be left empty for ERC777 transfer).\n   * @param operator The address performing the redemption.\n   * @param from Token holder whose tokens will be redeemed.\n   * @param value Number of tokens to redeem.\n   * @param data Information attached to the redemption.\n   * @param operatorData Information attached to the redemption, by the operator (if any).\n   */\n  function _redeem(bytes32 partition, address operator, address from, uint256 value, bytes memory data, bytes memory operatorData)\n    internal\n    nonReentrant\n  {\n    require(_isMultiple(value), \"A9: Transfer Blocked - Token granularity\");\n    require(from != address(0), \"A5: Transfer Blocked - Sender not eligible\");\n    require(_balances[from] >= value, \"A4: Transfer Blocked - Sender balance insufficient\");\n\n    _callSender(partition, operator, from, address(0), value, data, operatorData);\n\n    _balances[from] = _balances[from].sub(value);\n    _totalSupply = _totalSupply.sub(value);\n\n    emit Redeemed(operator, from, value, data, operatorData);\n  }\n\n  /**\n   * [INTERNAL]\n   * @dev Check for 'ERC777TokensSender' hook on the sender and call it.\n   * May throw according to 'preventLocking'.\n   * @param partition Name of the partition (bytes32 to be left empty for ERC777 transfer).\n   * @param operator Address which triggered the balance decrease (through transfer or redemption).\n   * @param from Token holder.\n   * @param to Token recipient for a transfer and 0x for a redemption.\n   * @param value Number of tokens the token holder balance is decreased by.\n   * @param data Extra information.\n   * @param operatorData Extra information, attached by the operator (if any).\n   */\n  function _callSender(\n    bytes32 partition,\n    address operator,\n    address from,\n    address to,\n    uint256 value,\n    bytes memory data,\n    bytes memory operatorData\n  )\n    internal\n  {\n    address senderImplementation;\n    senderImplementation = interfaceAddr(from, \"ERC777TokensSender\");\n\n    if (senderImplementation != address(0)) {\n      IERC777TokensSender(senderImplementation).tokensToTransfer(partition, operator, from, to, value, data, operatorData);\n    }\n  }\n\n  /**\n   * [INTERNAL]\n   * @dev Check for 'ERC777TokensRecipient' hook on the recipient and call it.\n   * May throw according to 'preventLocking'.\n   * @param partition Name of the partition (bytes32 to be left empty for ERC777 transfer).\n   * @param operator Address which triggered the balance increase (through transfer or issuance).\n   * @param from Token holder for a transfer and 0x for an issuance.\n   * @param to Token recipient.\n   * @param value Number of tokens the recipient balance is increased by.\n   * @param data Extra information, intended for the token holder ('from').\n   * @param operatorData Extra information attached by the operator (if any).\n   * @param preventLocking 'true' if you want this function to throw when tokens are sent to a contract not\n   * implementing 'ERC777TokensRecipient'.\n   * ERC777 native transfer functions MUST set this parameter to 'true', and backwards compatible ERC20 transfer\n   * functions SHOULD set this parameter to 'false'.\n   */\n  function _callRecipient(\n    bytes32 partition,\n    address operator,\n    address from,\n    address to,\n    uint256 value,\n    bytes memory data,\n    bytes memory operatorData,\n    bool preventLocking\n  )\n    internal\n  {\n    address recipientImplementation;\n    recipientImplementation = interfaceAddr(to, \"ERC777TokensRecipient\");\n\n    if (recipientImplementation != address(0)) {\n      IERC777TokensRecipient(recipientImplementation).tokensReceived(partition, operator, from, to, value, data, operatorData);\n    } else if (preventLocking) {\n      require(_isRegularAddress(to), \"A6: Transfer Blocked - Receiver not eligible\");\n    }\n  }\n\n  /**\n   * [INTERNAL]\n   * @dev Perform the issuance of tokens.\n   * @param partition Name of the partition (bytes32 to be left empty for ERC777 transfer).\n   * @param operator Address which triggered the issuance.\n   * @param to Token recipient.\n   * @param value Number of tokens issued.\n   * @param data Information attached to the issuance, and intended for the recipient (to).\n   * @param operatorData Information attached to the issuance by the operator (if any).\n   */\n  function _issue(bytes32 partition, address operator, address to, uint256 value, bytes memory data, bytes memory operatorData) internal nonReentrant {\n    require(_isMultiple(value), \"A9: Transfer Blocked - Token granularity\");\n    require(to != address(0), \"A6: Transfer Blocked - Receiver not eligible\");\n\n    _totalSupply = _totalSupply.add(value);\n    _balances[to] = _balances[to].add(value);\n\n    _callRecipient(partition, operator, address(0), to, value, data, operatorData, true);\n\n    emit Issued(operator, to, value, data, operatorData);\n  }\n\n  /********************** ERC777 OPTIONAL FUNCTIONS ***************************/\n\n  /**\n   * [NOT MANDATORY FOR ERC777 STANDARD]\n   * @dev Set list of token controllers.\n   * @param operators Controller addresses.\n   */\n  function _setControllers(address[] memory operators) internal {\n    for (uint i = 0; i<_controllers.length; i++){\n      _isController[_controllers[i]] = false;\n    }\n    for (uint j = 0; j<operators.length; j++){\n      _isController[operators[j]] = true;\n    }\n    _controllers = operators;\n  }\n\n}\n\n\n",
  "sourcePath": "/home/moez/Desktop/ProjetPFE/Dapps/ERC1400F/contracts/token/ERC777/ERC777.sol",
  "compiler": {
    "name": "solc",
    "version": "0.5.0+commit.1d4f565a.Emscripten.clang"
  },
  "schemaVersion": "3.0.9",
  "updatedAt": "2019-06-26T13:25:25.341Z",
  "devdoc": {
    "details": "ERC777 logic",
    "methods": {
      "authorizeOperator(address)": {
        "details": "Set a third party operator address as an operator of 'msg.sender' to transfer and redeem tokens on its behalf.",
        "params": {
          "operator": "Address to set as an operator for 'msg.sender'."
        }
      },
      "balanceOf(address)": {
        "details": "Get the balance of the account with address 'tokenHolder'.",
        "params": {
          "tokenHolder": "Address for which the balance is returned."
        },
        "return": "Amount of token held by 'tokenHolder' in the token contract."
      },
      "certificateSigners(address)": {
        "details": "Get certificate signer authorization for an operator.",
        "params": {
          "operator": "Address whom to check the certificate signer authorization for."
        },
        "return": "bool 'true' if operator is authorized as certificate signer, 'false' if not."
      },
      "checkCount(address)": {
        "details": "Get number of transations already sent to this contract by the sender",
        "params": {
          "sender": "Address whom to check the counter of."
        },
        "return": "uint256 Number of transaction already sent to this contract."
      },
      "constructor": {
        "details": "Initialize ERC777 and CertificateController parameters + register the contract implementation in ERC820Registry.",
        "params": {
          "certificateSigner": "Address of the off-chain service which signs the conditional ownership certificates required for token transfers, issuance, redemption (Cf. CertificateController.sol).",
          "controllers": "Array of initial controllers.",
          "granularity": "Granularity of the token.",
          "name": "Name of the token.",
          "symbol": "Symbol of the token."
        }
      },
      "controllers()": {
        "details": "Get the list of controllers as defined by the token contract.",
        "return": "List of addresses of all the controllers."
      },
      "granularity()": {
        "details": "Get the smallest part of the token thats not divisible.",
        "return": "The smallest non-divisible part of the token."
      },
      "isOperatorFor(address,address)": {
        "details": "Indicate whether the operator address is an operator of the tokenHolder address.",
        "params": {
          "operator": "Address which may be an operator of tokenHolder.",
          "tokenHolder": "Address of a token holder which may have the operator address as an operator."
        },
        "return": "'true' if operator is an operator of 'tokenHolder' and 'false' otherwise."
      },
      "isOwner()": {
        "return": "true if `msg.sender` is the owner of the contract."
      },
      "name()": {
        "details": "Get the name of the token, e.g., \"MyToken\".",
        "return": "Name of the token."
      },
      "owner()": {
        "return": "the address of the owner."
      },
      "redeem(uint256,bytes)": {
        "details": "Redeem the amount of tokens from the address 'msg.sender'.",
        "params": {
          "data": "Information attached to the redemption, by the token holder. [CONTAINS THE CONDITIONAL OWNERSHIP CERTIFICATE]",
          "value": "Number of tokens to redeem."
        }
      },
      "redeemFrom(address,uint256,bytes,bytes)": {
        "details": "Redeem the amount of tokens on behalf of the address from.",
        "params": {
          "data": "Information attached to the redemption.",
          "from": "Token holder whose tokens will be redeemed (or address(0) to set from to msg.sender).",
          "operatorData": "Information attached to the redemption, by the operator. [CONTAINS THE CONDITIONAL OWNERSHIP CERTIFICATE]",
          "value": "Number of tokens to redeem."
        }
      },
      "renounceOwnership()": {
        "details": "Allows the current owner to relinquish control of the contract. It will not be possible to call the functions with the `onlyOwner` modifier anymore."
      },
      "revokeOperator(address)": {
        "details": "Remove the right of the operator address to be an operator for 'msg.sender' and to transfer and redeem tokens on its behalf.",
        "params": {
          "operator": "Address to rescind as an operator for 'msg.sender'."
        }
      },
      "symbol()": {
        "details": "Get the symbol of the token, e.g., \"MYT\".",
        "return": "Symbol of the token."
      },
      "totalSupply()": {
        "details": "Get the total number of issued tokens.",
        "return": "Total supply of tokens currently in circulation."
      },
      "transferFromWithData(address,address,uint256,bytes,bytes)": {
        "details": "Transfer the amount of tokens on behalf of the address 'from' to the address 'to'.",
        "params": {
          "data": "Information attached to the transfer, and intended for the token holder ('from').",
          "from": "Token holder (or 'address(0)' to set from to 'msg.sender').",
          "operatorData": "Information attached to the transfer by the operator. [CONTAINS THE CONDITIONAL OWNERSHIP CERTIFICATE]",
          "to": "Token recipient.",
          "value": "Number of tokens to transfer."
        }
      },
      "transferOwnership(address)": {
        "details": "Allows the current owner to transfer control of the contract to a newOwner.",
        "params": {
          "newOwner": "The address to transfer ownership to."
        }
      },
      "transferWithData(address,uint256,bytes)": {
        "details": "Transfer the amount of tokens from the address 'msg.sender' to the address 'to'.",
        "params": {
          "data": "Information attached to the transfer, by the token holder. [CONTAINS THE CONDITIONAL OWNERSHIP CERTIFICATE]",
          "to": "Token recipient.",
          "value": "Number of tokens to transfer."
        }
      }
    },
    "title": "ERC777"
  },
  "userdoc": {
    "methods": {
      "authorizeOperator(address)": {
        "notice": "[ERC777 INTERFACE (7/13)]"
      },
      "balanceOf(address)": {
        "notice": "[ERC777 INTERFACE (4/13)]"
      },
      "constructor": "[ERC777 CONSTRUCTOR]",
      "controllers()": {
        "notice": "[ERC777 INTERFACE (6/13)]"
      },
      "granularity()": {
        "notice": "[ERC777 INTERFACE (5/13)]"
      },
      "isOperatorFor(address,address)": {
        "notice": "[ERC777 INTERFACE (9/13)]"
      },
      "name()": {
        "notice": "[ERC777 INTERFACE (1/13)]"
      },
      "redeem(uint256,bytes)": {
        "notice": "[ERC777 INTERFACE (12/13)]"
      },
      "redeemFrom(address,uint256,bytes,bytes)": {
        "notice": "[ERC777 INTERFACE (13/13)]"
      },
      "renounceOwnership()": {
        "notice": "Renouncing ownership will leave the contract without an owner, thereby removing any functionality that is only available to the owner."
      },
      "revokeOperator(address)": {
        "notice": "[ERC777 INTERFACE (8/13)]"
      },
      "symbol()": {
        "notice": "[ERC777 INTERFACE (2/13)]"
      },
      "totalSupply()": {
        "notice": "[ERC777 INTERFACE (3/13)]"
      },
      "transferFromWithData(address,address,uint256,bytes,bytes)": {
        "notice": "[ERC777 INTERFACE (11/13)]"
      },
      "transferWithData(address,uint256,bytes)": {
        "notice": "[ERC777 INTERFACE (10/13)]"
      }
    }
  }
}